{
  "contractName": "Enigma",
  "abi": [
    {
      "constant": true,
      "inputs": [],
      "name": "getIsvSvn",
      "outputs": [
        {
          "name": "",
          "type": "bytes"
        }
      ],
      "payable": false,
      "stateMutability": "view",
      "type": "function"
    },
    {
      "constant": true,
      "inputs": [],
      "name": "getAllSecretContractAddresses",
      "outputs": [
        {
          "name": "",
          "type": "bytes32[]"
        }
      ],
      "payable": false,
      "stateMutability": "view",
      "type": "function"
    },
    {
      "constant": true,
      "inputs": [],
      "name": "getTaskTimeoutSize",
      "outputs": [
        {
          "name": "",
          "type": "uint256"
        }
      ],
      "payable": false,
      "stateMutability": "view",
      "type": "function"
    },
    {
      "constant": true,
      "inputs": [],
      "name": "getMrSigner",
      "outputs": [
        {
          "name": "",
          "type": "bytes"
        }
      ],
      "payable": false,
      "stateMutability": "view",
      "type": "function"
    },
    {
      "constant": true,
      "inputs": [],
      "name": "getWorkersParams",
      "outputs": [
        {
          "components": [
            {
              "name": "firstBlockNumber",
              "type": "uint256"
            },
            {
              "name": "workers",
              "type": "address[]"
            },
            {
              "name": "stakes",
              "type": "uint256[]"
            },
            {
              "name": "seed",
              "type": "uint256"
            }
          ],
          "name": "",
          "type": "tuple[5]"
        }
      ],
      "payable": false,
      "stateMutability": "view",
      "type": "function"
    },
    {
      "constant": false,
      "inputs": [],
      "name": "renounceOwnership",
      "outputs": [],
      "payable": false,
      "stateMutability": "nonpayable",
      "type": "function"
    },
    {
      "constant": true,
      "inputs": [
        {
          "name": "_scAddr",
          "type": "bytes32"
        }
      ],
      "name": "getSecretContract",
      "outputs": [
        {
          "components": [
            {
              "name": "owner",
              "type": "address"
            },
            {
              "name": "preCodeHash",
              "type": "bytes32"
            },
            {
              "name": "codeHash",
              "type": "bytes32"
            },
            {
              "name": "stateDeltaHashes",
              "type": "bytes32[]"
            },
            {
              "name": "status",
              "type": "uint8"
            }
          ],
          "name": "",
          "type": "tuple"
        }
      ],
      "payable": false,
      "stateMutability": "view",
      "type": "function"
    },
    {
      "constant": true,
      "inputs": [],
      "name": "owner",
      "outputs": [
        {
          "name": "",
          "type": "address"
        }
      ],
      "payable": false,
      "stateMutability": "view",
      "type": "function"
    },
    {
      "constant": true,
      "inputs": [
        {
          "name": "_taskId",
          "type": "bytes32"
        }
      ],
      "name": "getTaskRecord",
      "outputs": [
        {
          "components": [
            {
              "name": "sender",
              "type": "address"
            },
            {
              "name": "inputsHash",
              "type": "bytes32"
            },
            {
              "name": "outputHash",
              "type": "bytes32"
            },
            {
              "name": "gasLimit",
              "type": "uint64"
            },
            {
              "name": "gasPx",
              "type": "uint64"
            },
            {
              "name": "blockNumber",
              "type": "uint256"
            },
            {
              "name": "status",
              "type": "uint8"
            },
            {
              "name": "proof",
              "type": "bytes"
            }
          ],
          "name": "",
          "type": "tuple"
        }
      ],
      "payable": false,
      "stateMutability": "view",
      "type": "function"
    },
    {
      "constant": true,
      "inputs": [],
      "name": "isOwner",
      "outputs": [
        {
          "name": "",
          "type": "bool"
        }
      ],
      "payable": false,
      "stateMutability": "view",
      "type": "function"
    },
    {
      "constant": true,
      "inputs": [
        {
          "name": "_signer",
          "type": "address"
        }
      ],
      "name": "getWorkerFromSigningAddress",
      "outputs": [
        {
          "name": "",
          "type": "address"
        },
        {
          "components": [
            {
              "name": "signer",
              "type": "address"
            },
            {
              "name": "status",
              "type": "uint8"
            },
            {
              "name": "report",
              "type": "bytes"
            },
            {
              "name": "balance",
              "type": "uint256"
            },
            {
              "components": [
                {
                  "name": "workerEventType",
                  "type": "uint8"
                },
                {
                  "name": "blockNumber",
                  "type": "uint256"
                },
                {
                  "name": "balance",
                  "type": "uint256"
                }
              ],
              "name": "workerLogs",
              "type": "tuple[]"
            }
          ],
          "name": "",
          "type": "tuple"
        }
      ],
      "payable": false,
      "stateMutability": "view",
      "type": "function"
    },
    {
      "constant": true,
      "inputs": [],
      "name": "getUpdatedEnigmaContractAddress",
      "outputs": [
        {
          "name": "",
          "type": "address"
        }
      ],
      "payable": false,
      "stateMutability": "view",
      "type": "function"
    },
    {
      "constant": true,
      "inputs": [
        {
          "name": "_worker",
          "type": "address"
        }
      ],
      "name": "getWorker",
      "outputs": [
        {
          "components": [
            {
              "name": "signer",
              "type": "address"
            },
            {
              "name": "status",
              "type": "uint8"
            },
            {
              "name": "report",
              "type": "bytes"
            },
            {
              "name": "balance",
              "type": "uint256"
            },
            {
              "components": [
                {
                  "name": "workerEventType",
                  "type": "uint8"
                },
                {
                  "name": "blockNumber",
                  "type": "uint256"
                },
                {
                  "name": "balance",
                  "type": "uint256"
                }
              ],
              "name": "workerLogs",
              "type": "tuple[]"
            }
          ],
          "name": "",
          "type": "tuple"
        }
      ],
      "payable": false,
      "stateMutability": "view",
      "type": "function"
    },
    {
      "constant": true,
      "inputs": [],
      "name": "getSigningAddress",
      "outputs": [
        {
          "name": "",
          "type": "address"
        }
      ],
      "payable": false,
      "stateMutability": "view",
      "type": "function"
    },
    {
      "constant": true,
      "inputs": [],
      "name": "getEpochSize",
      "outputs": [
        {
          "name": "",
          "type": "uint256"
        }
      ],
      "payable": false,
      "stateMutability": "view",
      "type": "function"
    },
    {
      "constant": false,
      "inputs": [
        {
          "name": "newOwner",
          "type": "address"
        }
      ],
      "name": "transferOwnership",
      "outputs": [],
      "payable": false,
      "stateMutability": "nonpayable",
      "type": "function"
    },
    {
      "constant": true,
      "inputs": [
        {
          "name": "_sender",
          "type": "address"
        }
      ],
      "name": "getUserTaskDeployments",
      "outputs": [
        {
          "name": "",
          "type": "uint256"
        }
      ],
      "payable": false,
      "stateMutability": "view",
      "type": "function"
    },
    {
      "inputs": [
        {
          "name": "_tokenAddress",
          "type": "address"
        },
        {
          "name": "_principal",
          "type": "address"
        },
        {
          "name": "_exchangeRate",
          "type": "address"
        },
        {
          "name": "_epochSize",
          "type": "uint256"
        },
        {
          "name": "_timeoutThreshold",
          "type": "uint256"
        }
      ],
      "payable": false,
      "stateMutability": "nonpayable",
      "type": "constructor"
    },
    {
      "anonymous": false,
      "inputs": [
        {
          "indexed": true,
          "name": "previousOwner",
          "type": "address"
        },
        {
          "indexed": true,
          "name": "newOwner",
          "type": "address"
        }
      ],
      "name": "OwnershipTransferred",
      "type": "event"
    },
    {
      "anonymous": false,
      "inputs": [
        {
          "indexed": false,
          "name": "custodian",
          "type": "address"
        },
        {
          "indexed": false,
          "name": "signer",
          "type": "address"
        }
      ],
      "name": "Registered",
      "type": "event"
    },
    {
      "anonymous": false,
      "inputs": [
        {
          "indexed": false,
          "name": "seed",
          "type": "uint256"
        },
        {
          "indexed": false,
          "name": "firstBlockNumber",
          "type": "uint256"
        },
        {
          "indexed": false,
          "name": "inclusionBlockNumber",
          "type": "uint256"
        },
        {
          "indexed": false,
          "name": "workers",
          "type": "address[]"
        },
        {
          "indexed": false,
          "name": "stakes",
          "type": "uint256[]"
        },
        {
          "indexed": false,
          "name": "nonce",
          "type": "uint256"
        }
      ],
      "name": "WorkersParameterized",
      "type": "event"
    },
    {
      "anonymous": false,
      "inputs": [
        {
          "indexed": false,
          "name": "taskId",
          "type": "bytes32"
        },
        {
          "indexed": false,
          "name": "inputsHash",
          "type": "bytes32"
        },
        {
          "indexed": false,
          "name": "gasLimit",
          "type": "uint64"
        },
        {
          "indexed": false,
          "name": "gasPx",
          "type": "uint64"
        },
        {
          "indexed": false,
          "name": "sender",
          "type": "address"
        },
        {
          "indexed": false,
          "name": "blockNumber",
          "type": "uint256"
        }
      ],
      "name": "TaskRecordCreated",
      "type": "event"
    },
    {
      "anonymous": false,
      "inputs": [
        {
          "indexed": false,
          "name": "gasUsed",
          "type": "uint64"
        },
        {
          "indexed": false,
          "name": "optionalEthereumContractAddress",
          "type": "address"
        },
        {
          "indexed": false,
          "name": "bytes32s",
          "type": "bytes32[4]"
        },
        {
          "indexed": false,
          "name": "deltaHashIndex",
          "type": "uint256"
        },
        {
          "indexed": false,
          "name": "gasUsedTotal",
          "type": "uint256"
        },
        {
          "indexed": false,
          "name": "optionalEthereumData",
          "type": "bytes"
        },
        {
          "indexed": false,
          "name": "workerAddress",
          "type": "address"
        },
        {
          "indexed": false,
          "name": "sig",
          "type": "bytes"
        }
      ],
      "name": "ReceiptVerified",
      "type": "event"
    },
    {
      "anonymous": false,
      "inputs": [
        {
          "indexed": false,
          "name": "taskId",
          "type": "bytes32"
        },
        {
          "indexed": false,
          "name": "scAddr",
          "type": "bytes32"
        },
        {
          "indexed": false,
          "name": "gasUsed",
          "type": "uint256"
        },
        {
          "indexed": false,
          "name": "workerAddress",
          "type": "address"
        },
        {
          "indexed": false,
          "name": "sig",
          "type": "bytes"
        }
      ],
      "name": "ReceiptFailed",
      "type": "event"
    },
    {
      "anonymous": false,
      "inputs": [
        {
          "indexed": false,
          "name": "taskId",
          "type": "bytes32"
        },
        {
          "indexed": false,
          "name": "scAddr",
          "type": "bytes32"
        },
        {
          "indexed": false,
          "name": "gasUsed",
          "type": "uint256"
        },
        {
          "indexed": false,
          "name": "gasUsedTotal",
          "type": "uint256"
        },
        {
          "indexed": false,
          "name": "workerAddress",
          "type": "address"
        },
        {
          "indexed": false,
          "name": "sig",
          "type": "bytes"
        }
      ],
      "name": "ReceiptFailedETH",
      "type": "event"
    },
    {
      "anonymous": false,
      "inputs": [
        {
          "indexed": false,
          "name": "taskId",
          "type": "bytes32"
        }
      ],
      "name": "TaskFeeReturned",
      "type": "event"
    },
    {
      "anonymous": false,
      "inputs": [
        {
          "indexed": false,
          "name": "from",
          "type": "address"
        },
        {
          "indexed": false,
          "name": "value",
          "type": "uint256"
        }
      ],
      "name": "DepositSuccessful",
      "type": "event"
    },
    {
      "anonymous": false,
      "inputs": [
        {
          "indexed": false,
          "name": "to",
          "type": "address"
        },
        {
          "indexed": false,
          "name": "value",
          "type": "uint256"
        }
      ],
      "name": "WithdrawSuccessful",
      "type": "event"
    },
    {
      "anonymous": false,
      "inputs": [
        {
          "indexed": false,
          "name": "gasUsed",
          "type": "uint64"
        },
        {
          "indexed": false,
          "name": "optionalEthereumContractAddress",
          "type": "address"
        },
        {
          "indexed": false,
          "name": "bytes32s",
          "type": "bytes32[4]"
        },
        {
          "indexed": false,
          "name": "gasUsedTotal",
          "type": "uint256"
        },
        {
          "indexed": false,
          "name": "optionalEthereumData",
          "type": "bytes"
        },
        {
          "indexed": false,
          "name": "workerAddress",
          "type": "address"
        }
      ],
      "name": "SecretContractDeployed",
      "type": "event"
    },
    {
      "anonymous": false,
      "inputs": [
        {
          "indexed": false,
          "name": "workerAddress",
          "type": "address"
        }
      ],
      "name": "LoggedIn",
      "type": "event"
    },
    {
      "anonymous": false,
      "inputs": [
        {
          "indexed": false,
          "name": "workerAddress",
          "type": "address"
        }
      ],
      "name": "LoggedOut",
      "type": "event"
    },
    {
      "constant": false,
      "inputs": [
        {
          "name": "_signer",
          "type": "address"
        },
        {
          "name": "_report",
          "type": "bytes"
        },
        {
          "name": "_signature",
          "type": "bytes"
        }
      ],
      "name": "register",
      "outputs": [],
      "payable": false,
      "stateMutability": "nonpayable",
      "type": "function"
    },
    {
      "constant": false,
      "inputs": [
        {
          "name": "_custodian",
          "type": "address"
        },
        {
          "name": "_amount",
          "type": "uint256"
        }
      ],
      "name": "deposit",
      "outputs": [],
      "payable": false,
      "stateMutability": "nonpayable",
      "type": "function"
    },
    {
      "constant": false,
      "inputs": [
        {
          "name": "_amount",
          "type": "uint256"
        }
      ],
      "name": "withdraw",
      "outputs": [],
      "payable": false,
      "stateMutability": "nonpayable",
      "type": "function"
    },
    {
      "constant": false,
      "inputs": [],
      "name": "login",
      "outputs": [],
      "payable": false,
      "stateMutability": "nonpayable",
      "type": "function"
    },
    {
      "constant": false,
      "inputs": [],
      "name": "logout",
      "outputs": [],
      "payable": false,
      "stateMutability": "nonpayable",
      "type": "function"
    },
    {
      "constant": false,
      "inputs": [
        {
          "name": "_taskId",
          "type": "bytes32"
        },
        {
          "name": "_codeHash",
          "type": "bytes32"
        },
        {
          "name": "_gasUsed",
          "type": "uint64"
        },
        {
          "name": "_sig",
          "type": "bytes"
        }
      ],
      "name": "deploySecretContractFailure",
      "outputs": [],
      "payable": false,
      "stateMutability": "nonpayable",
      "type": "function"
    },
    {
      "constant": false,
      "inputs": [
        {
          "name": "_gasUsed",
          "type": "uint64"
        },
        {
          "name": "_optionalEthereumContractAddress",
          "type": "address"
        },
        {
          "name": "_bytes32s",
          "type": "bytes32[4]"
        },
        {
          "name": "_optionalEthereumData",
          "type": "bytes"
        },
        {
          "name": "_sig",
          "type": "bytes"
        }
      ],
      "name": "deploySecretContract",
      "outputs": [],
      "payable": false,
      "stateMutability": "nonpayable",
      "type": "function"
    },
    {
      "constant": true,
      "inputs": [],
      "name": "countSecretContracts",
      "outputs": [
        {
          "name": "",
          "type": "uint256"
        }
      ],
      "payable": false,
      "stateMutability": "view",
      "type": "function"
    },
    {
      "constant": true,
      "inputs": [
        {
          "name": "_start",
          "type": "uint256"
        },
        {
          "name": "_stop",
          "type": "uint256"
        }
      ],
      "name": "getSecretContractAddresses",
      "outputs": [
        {
          "name": "",
          "type": "bytes32[]"
        }
      ],
      "payable": false,
      "stateMutability": "view",
      "type": "function"
    },
    {
      "constant": false,
      "inputs": [
        {
          "name": "_inputsHash",
          "type": "bytes32"
        },
        {
          "name": "_gasLimit",
          "type": "uint64"
        },
        {
          "name": "_gasPx",
          "type": "uint64"
        },
        {
          "name": "_firstBlockNumber",
          "type": "uint256"
        },
        {
          "name": "_nonce",
          "type": "uint256"
        }
      ],
      "name": "createDeploymentTaskRecord",
      "outputs": [],
      "payable": false,
      "stateMutability": "nonpayable",
      "type": "function"
    },
    {
      "constant": false,
      "inputs": [
        {
          "name": "_inputsHash",
          "type": "bytes32"
        },
        {
          "name": "_gasLimit",
          "type": "uint64"
        },
        {
          "name": "_gasPx",
          "type": "uint64"
        },
        {
          "name": "_firstBlockNumber",
          "type": "uint256"
        }
      ],
      "name": "createTaskRecord",
      "outputs": [],
      "payable": false,
      "stateMutability": "nonpayable",
      "type": "function"
    },
    {
      "constant": false,
      "inputs": [
        {
          "name": "_gasUsed",
          "type": "uint64"
        },
        {
          "name": "_optionalEthereumContractAddress",
          "type": "address"
        },
        {
          "name": "_bytes32s",
          "type": "bytes32[4]"
        },
        {
          "name": "_optionalEthereumData",
          "type": "bytes"
        },
        {
          "name": "_sig",
          "type": "bytes"
        }
      ],
      "name": "commitReceipt",
      "outputs": [],
      "payable": false,
      "stateMutability": "nonpayable",
      "type": "function"
    },
    {
      "constant": false,
      "inputs": [
        {
          "name": "_scAddr",
          "type": "bytes32"
        },
        {
          "name": "_taskId",
          "type": "bytes32"
        },
        {
          "name": "_outputHash",
          "type": "bytes32"
        },
        {
          "name": "_gasUsed",
          "type": "uint64"
        },
        {
          "name": "_sig",
          "type": "bytes"
        }
      ],
      "name": "commitTaskFailure",
      "outputs": [],
      "payable": false,
      "stateMutability": "nonpayable",
      "type": "function"
    },
    {
      "constant": false,
      "inputs": [
        {
          "name": "_taskId",
          "type": "bytes32"
        }
      ],
      "name": "returnFeesForTask",
      "outputs": [],
      "payable": false,
      "stateMutability": "nonpayable",
      "type": "function"
    },
    {
      "constant": false,
      "inputs": [
        {
          "name": "_blockNumber",
          "type": "uint256"
        },
        {
          "name": "_seed",
          "type": "uint256"
        },
        {
          "name": "_sig",
          "type": "bytes"
        }
      ],
      "name": "setWorkersParams",
      "outputs": [],
      "payable": false,
      "stateMutability": "nonpayable",
      "type": "function"
    },
    {
      "constant": true,
      "inputs": [
        {
          "name": "_blockNumber",
          "type": "uint256"
        }
      ],
      "name": "getActiveWorkers",
      "outputs": [
        {
          "name": "",
          "type": "address[]"
        },
        {
          "name": "",
          "type": "uint256[]"
        }
      ],
      "payable": false,
      "stateMutability": "view",
      "type": "function"
    },
    {
      "constant": true,
      "inputs": [
        {
          "name": "_blockNumber",
          "type": "uint256"
        }
      ],
      "name": "getFirstBlockNumber",
      "outputs": [
        {
          "name": "",
          "type": "uint256"
        }
      ],
      "payable": false,
      "stateMutability": "view",
      "type": "function"
    },
    {
      "constant": true,
      "inputs": [
        {
          "name": "_blockNumber",
          "type": "uint256"
        }
      ],
      "name": "getWorkerParams",
      "outputs": [
        {
          "name": "",
          "type": "uint256"
        },
        {
          "name": "",
          "type": "uint256"
        },
        {
          "name": "",
          "type": "address[]"
        },
        {
          "name": "",
          "type": "uint256[]"
        }
      ],
      "payable": false,
      "stateMutability": "view",
      "type": "function"
    },
    {
      "constant": true,
      "inputs": [
        {
          "name": "_blockNumber",
          "type": "uint256"
        },
        {
          "name": "_scAddr",
          "type": "bytes32"
        }
      ],
      "name": "getWorkerGroup",
      "outputs": [
        {
          "name": "",
          "type": "address[]"
        }
      ],
      "payable": false,
      "stateMutability": "view",
      "type": "function"
    },
    {
      "constant": true,
      "inputs": [
        {
          "name": "_custodian",
          "type": "address"
        }
      ],
      "name": "getReport",
      "outputs": [
        {
          "name": "",
          "type": "address"
        },
        {
          "name": "",
          "type": "bytes"
        }
      ],
      "payable": false,
      "stateMutability": "view",
      "type": "function"
    },
    {
      "constant": true,
      "inputs": [
        {
          "name": "_data",
          "type": "bytes"
        },
        {
          "name": "_signature",
          "type": "bytes"
        }
      ],
      "name": "verifyReport",
      "outputs": [
        {
          "name": "",
          "type": "uint256"
        }
      ],
      "payable": false,
      "stateMutability": "view",
      "type": "function"
    },
    {
      "constant": false,
      "inputs": [
        {
          "name": "_updatedEnigmaContractAddress",
          "type": "address"
        }
      ],
      "name": "upgradeEnigmaContract",
      "outputs": [],
      "payable": false,
      "stateMutability": "nonpayable",
      "type": "function"
    },
    {
      "constant": false,
      "inputs": [
        {
          "name": "_workerAddress",
          "type": "address"
        },
        {
          "name": "_sig",
          "type": "bytes"
        }
      ],
      "name": "transferWorkerStakePostUpgrade",
      "outputs": [
        {
          "name": "",
          "type": "uint256"
        }
      ],
      "payable": false,
      "stateMutability": "nonpayable",
      "type": "function"
    },
    {
      "constant": false,
      "inputs": [
        {
          "name": "_mrSigner",
          "type": "bytes"
        }
      ],
      "name": "setMrSigner",
      "outputs": [],
      "payable": false,
      "stateMutability": "nonpayable",
      "type": "function"
    },
    {
      "constant": false,
      "inputs": [
        {
          "name": "_isvSvn",
          "type": "bytes"
        }
      ],
      "name": "setIsvSvn",
      "outputs": [],
      "payable": false,
      "stateMutability": "nonpayable",
      "type": "function"
    }
  ],
  "bytecode": "0x60806040523480156200001157600080fd5b5060405160a08062004f16833981018060405262000033919081019062000107565b602680546001600160a01b0319163317908190556040516001600160a01b0391909116906000907f8be0079c531659141344cd1fd0a4f28419497f9722a3daafe3b4186f6b6457e0908290a3600080546001600160a01b039687166001600160a01b03199182161790915560018381559190920260025560038054948616948316949094179093556004805492909416918116919091179092556005805490921630179091556022819055602355620001c1565b8051620000f4816200019c565b92915050565b8051620000f481620001b6565b600080600080600060a086880312156200012057600080fd5b60006200012e8888620000e7565b95505060206200014188828901620000e7565b94505060406200015488828901620000e7565b93505060606200016788828901620000fa565b92505060806200017a88828901620000fa565b9150509295509295909350565b60006001600160a01b038216620000f4565b90565b620001a78162000187565b8114620001b357600080fd5b50565b620001a78162000199565b614d4580620001d16000396000f3fe608060405234801561001057600080fd5b506004361061025e5760003560e01c80638ed0573711610146578063c011b1c3116100c3578063d855a57911610087578063d855a57914610552578063df4da4611461055a578063ee6dcef914610562578063f2fde38b14610575578063f74e6e1d14610588578063f9a9b7ae1461059b5761025e565b8063c011b1c3146104e6578063c25d94d214610506578063c652b91914610519578063ca2af5f21461052c578063cbbc061d1461053f5761025e565b8063a3bdae3e1161010a578063a3bdae3e1461048f578063b34e97e8146104b0578063b5c14992146104b8578063b9758c95146104cb578063ba252688146104d35761025e565b80638ed05737146104035780638f32d59b146104235780639836ca3114610438578063a0c399821461045b578063a153ec601461047c5761025e565b80635f25f850116101df5780637624281e116101a35780637624281e14610382578063786cd4d7146103a25780637a743832146103b55780637c438de9146103c85780638da5cb5b146103db5780638e055b8b146103f05761025e565b80635f25f85014610340578063700dd4df1461035557806370266a471461035d578063715018a61461037257806375bbf75b1461037a5761025e565b80633a92d44c116102265780633a92d44c146102dd57806347e7ef24146102f257806350946a9f146103055780635486aa7014610318578063550baa2f1461032b5761025e565b806316f9a2a4146102635780631d40ff0b1461028d5780631f3c99c3146102ad5780632e1a7d4d146102b75780633480943b146102ca575b600080fd5b610276610271366004613852565b6105ae565b60405161028492919061466c565b60405180910390f35b6102a061029b366004613ad6565b610648565b604051610284919061465b565b6102b56106e7565b005b6102b56102c5366004613852565b610940565b6102b56102d8366004613a31565b610c87565b6102e5610caf565b60405161028491906146c1565b6102b561030036600461375d565b610d46565b6102b5610313366004613b78565b610f94565b6102b5610326366004613baa565b61121b565b6103336114e9565b6040516102849190614691565b610348611543565b6040516102849190614afa565b6102e5611549565b6103656115aa565b60405161028491906146a2565b6102b56116c4565b61034861171f565b610395610390366004613852565b6117b1565b60405161028491906147c7565b6102b56103b03660046136e2565b611876565b6102b56103c3366004613a31565b611967565b6103486103d636600461364a565b61198b565b6103e3611a4a565b604051610284919061460d565b6103336103fe366004613ad6565b611a59565b610416610411366004613852565b611aef565b6040516102849190614ab8565b61042b611c2f565b60405161028491906146b3565b61044b610446366004613852565b611c40565b6040516102849493929190614b08565b61046e610469366004613624565b611ce3565b60405161028492919061463b565b6102b561048a3660046138fc565b611f26565b6104a261049d366004613624565b6121f1565b60405161028492919061461b565b6102b5612473565b6103486104c6366004613a65565b6126df565b6103e361271e565b6102b56104e1366004613974565b61272d565b6104f96104f4366004613624565b61279d565b6040516102849190614ac9565b6102b5610514366004613baa565b61294e565b6102b56105273660046139c9565b612be4565b6102b561053a366004613870565b612c67565b61034861054d366004613852565b612efb565b6103e3612f8a565b610348612fa6565b6102b5610570366004613852565b612fac565b6102b5610583366004613624565b61302d565b6102b5610596366004613624565b61304a565b6103486105a9366004613624565b6130f8565b60608073__PrincipalImpl_________________________63eacba6536000856040518363ffffffff1660e01b81526004016105eb9291906148a8565b60006040518083038186803b15801561060357600080fd5b505af4158015610617573d6000803e3d6000fd5b505050506040513d6000823e601f3d908101601f1916820160405261063f91908101906137c1565b91509150915091565b604051600160e11b635deadfbd02815260609073__WorkersImpl___________________________9063bbd5bf7a9061068a9060009087908790600401614a06565b60006040518083038186803b1580156106a257600080fd5b505af41580156106b6573d6000803e3d6000fd5b505050506040513d6000823e601f3d908101601f191682016040526106de919081019061378d565b90505b92915050565b336106f0613182565b6001600160a01b038281166000908152601d6020908152604091829020825160a0810190935280549384168352919290830190600160a01b900460ff16600281111561073857fe5b600281111561074357fe5b8152602001600182018054600181600116156101000203166002900480601f0160208091040260200160405190810160405280929190818152602001828054600181600116156101000203166002900480156107e05780601f106107b5576101008083540402835291602001916107e0565b820191906000526020600020905b8154815290600101906020018083116107c357829003601f168201915b505050505081526020016002820154815260200160038201805480602002602001604051908101604052809291908181526020016000905b8282101561088b57838290600052602060002090600302016040518060600160405290816000820160009054906101000a900460ff16600381111561085957fe5b600381111561086457fe5b81526020016001820154815260200160028201548152505081526020019060010190610818565b50505091525090915060019050816020015160028111156108a857fe5b146108d157604051600160e51b62461bcd0281526004016108c890614777565b60405180910390fd5b604051600160e01b6349e44f4902815273__WorkersImpl___________________________906349e44f499061090c906000906004016147d8565b60006040518083038186803b15801561092457600080fd5b505af4158015610938573d6000803e3d6000fd5b505050505050565b33610949613182565b6001600160a01b038281166000908152601d6020908152604091829020825160a0810190935280549384168352919290830190600160a01b900460ff16600281111561099157fe5b600281111561099c57fe5b8152602001600182018054600181600116156101000203166002900480601f016020809104026020016040519081016040528092919081815260200182805460018160011615610100020316600290048015610a395780601f10610a0e57610100808354040283529160200191610a39565b820191906000526020600020905b815481529060010190602001808311610a1c57829003601f168201915b505050505081526020016002820154815260200160038201805480602002602001604051908101604052809291908181526020016000905b82821015610ae457838290600052602060002090600302016040518060600160405290816000820160009054906101000a900460ff166003811115610ab257fe5b6003811115610abd57fe5b81526020016001820154815260200160028201548152505081526020019060010190610a71565b5050509152509091506002905081602001516002811115610b0157fe5b14610b2157604051600160e51b62461bcd0281526004016108c8906147b7565b610b296131b2565b604051600160e21b6328de336102815273__WorkersImpl___________________________9063a378cd8490610b659085904390600401614ada565b60606040518083038186803b158015610b7d57600080fd5b505af4158015610b91573d6000803e3d6000fd5b505050506040513d601f19601f82011682018060405250610bb59190810190613a9a565b9050600281516003811115610bc657fe5b14610be657604051600160e51b62461bcd0281526004016108c890614717565b8060200151610bf443612efb565b11610c1457604051600160e51b62461bcd0281526004016108c890614767565b604051600160e21b632fdb7d1902815273__WorkersImpl___________________________9063bf6df46490610c519060009088906004016148a8565b60006040518083038186803b158015610c6957600080fd5b505af4158015610c7d573d6000803e3d6000fd5b5050505050505050565b610c8f611c2f565b610c9857600080fd5b8051610cab9060259060208401906131d4565b5050565b60258054604080516020601f6002600019610100600188161502019095169490940493840181900481028201810190925282815260609390929091830182828015610d3b5780601f10610d1057610100808354040283529160200191610d3b565b820191906000526020600020905b815481529060010190602001808311610d1e57829003601f168201915b505050505090505b90565b6005546001600160a01b03163014610d7357604051600160e51b62461bcd0281526004016108c890614737565b81610d7c613182565b6001600160a01b038281166000908152601d6020908152604091829020825160a0810190935280549384168352919290830190600160a01b900460ff166002811115610dc457fe5b6002811115610dcf57fe5b8152602001600182018054600181600116156101000203166002900480601f016020809104026020016040519081016040528092919081815260200182805460018160011615610100020316600290048015610e6c5780601f10610e4157610100808354040283529160200191610e6c565b820191906000526020600020905b815481529060010190602001808311610e4f57829003601f168201915b505050505081526020016002820154815260200160038201805480602002602001604051908101604052809291908181526020016000905b82821015610f1757838290600052602060002090600302016040518060600160405290816000820160009054906101000a900460ff166003811115610ee557fe5b6003811115610ef057fe5b81526020016001820154815260200160028201548152505081526020019060010190610ea4565b5050509152509091506000905081602001516002811115610f3457fe5b1415610f5557604051600160e51b62461bcd0281526004016108c890614787565b604051600160e21b630e80483102815273__WorkersImpl___________________________90633a0120c490610c519060009088908890600401614880565b6005546001600160a01b03163014610fc157604051600160e51b62461bcd0281526004016108c890614737565b33610fca613182565b6001600160a01b038281166000908152601d6020908152604091829020825160a0810190935280549384168352919290830190600160a01b900460ff16600281111561101257fe5b600281111561101d57fe5b8152602001600182018054600181600116156101000203166002900480601f0160208091040260200160405190810160405280929190818152602001828054600181600116156101000203166002900480156110ba5780601f1061108f576101008083540402835291602001916110ba565b820191906000526020600020905b81548152906001019060200180831161109d57829003601f168201915b505050505081526020016002820154815260200160038201805480602002602001604051908101604052809291908181526020016000905b8282101561116557838290600052602060002090600302016040518060600160405290816000820160009054906101000a900460ff16600381111561113357fe5b600381111561113e57fe5b815260200160018201548152602001600282015481525050815260200190600101906110f2565b505050915250909150600090508160200151600281111561118257fe5b14156111a357604051600160e51b62461bcd0281526004016108c890614787565b604051600160e31b63184e876302815273__PrincipalImpl_________________________9063c2743b18906111e490600090899089908990600401614a21565b60006040518083038186803b1580156111fc57600080fd5b505af4158015611210573d6000803e3d6000fd5b505050505050505050565b6005546001600160a01b0316301461124857604051600160e51b62461bcd0281526004016108c890614737565b33611251613182565b6001600160a01b038281166000908152601d6020908152604091829020825160a0810190935280549384168352919290830190600160a01b900460ff16600281111561129957fe5b60028111156112a457fe5b8152602001600182018054600181600116156101000203166002900480601f0160208091040260200160405190810160405280929190818152602001828054600181600116156101000203166002900480156113415780601f1061131657610100808354040283529160200191611341565b820191906000526020600020905b81548152906001019060200180831161132457829003601f168201915b505050505081526020016002820154815260200160038201805480602002602001604051908101604052809291908181526020016000905b828210156113ec57838290600052602060002090600302016040518060600160405290816000820160009054906101000a900460ff1660038111156113ba57fe5b60038111156113c557fe5b81526020016001820154815260200160028201548152505081526020019060010190611379565b505050915250909150600190508160200151600281111561140957fe5b1461142957604051600160e51b62461bcd0281526004016108c890614777565b8451600081815260208052604081206004015460ff16600181111561144a57fe5b1461146a57604051600160e51b62461bcd0281526004016108c890614797565b604051600160e21b632dfb660d02815273__TaskImpl______________________________9063b7ed9834906114af906000908c908c908c908c908c90600401614a5b565b60006040518083038186803b1580156114c757600080fd5b505af41580156114db573d6000803e3d6000fd5b505050505050505050505050565b60606000601c01805480602002602001604051908101604052809291908181526020018280548015610d3b57602002820191906000526020600020905b815481526020019060010190808311611526575050505050905090565b60025490565b60248054604080516020601f6002600019610100600188161502019095169490940493840181900481028201810190925282815260609390929091830182828015610d3b5780601f10610d1057610100808354040283529160200191610d3b565b6115b2613252565b6040805160a08101909152600760056000835b828210156116bb57838260040201604051806080016040529081600082015481526020016001820180548060200260200160405190810160405280929190818152602001828054801561164157602002820191906000526020600020905b81546001600160a01b03168152600190910190602001808311611623575b505050505081526020016002820180548060200260200160405190810160405280929190818152602001828054801561169957602002820191906000526020600020905b815481526020019060010190808311611685575b50505050508152602001600382015481525050815260200190600101906115c5565b50505050905090565b6116cc611c2f565b6116d557600080fd5b6026546040516000916001600160a01b0316907f8be0079c531659141344cd1fd0a4f28419497f9722a3daafe3b4186f6b6457e0908390a3602680546001600160a01b0319169055565b604051600160e11b6302b519c302815260009073__SecretContractImpl____________________9063056a33869061175c9084906004016147d8565b60206040518083038186803b15801561177457600080fd5b505af4158015611788573d6000803e3d6000fd5b505050506040513d601f19601f820116820180604052506117ac9190810190613ab8565b905090565b6117b9613280565b60008281526020808052604091829020825160a08101845281546001600160a01b03168152600182015481840152600282015481850152600382018054855181860281018601909652808652919492936060860193929083018282801561183f57602002820191906000526020600020905b81548152602001906001019080831161182b575b5050509183525050600482015460209091019060ff16600181111561186057fe5b600181111561186b57fe5b90525090505b919050565b6005546001600160a01b031630146118a357604051600160e51b62461bcd0281526004016108c890614737565b8260005b601b5481101561192557816001600160a01b03166000601d01600080601b0184815481106118d157fe5b60009182526020808320909101546001600160a01b03908116845290830193909352604090910190205416141561191d57604051600160e51b62461bcd0281526004016108c890614707565b6001016118a7565b50604051600160e51b63063e88f102815273__WorkersImpl___________________________9063c7d11e2090610c5190600090889088908890600401614835565b61196f611c2f565b61197857600080fd5b8051610cab9060249060208401906131d4565b6005546000906001600160a01b031633146119bb57604051600160e51b62461bcd0281526004016108c8906147a7565b604051600160e01b63d3c0af8702815273__UpgradeImpl___________________________9063d3c0af87906119fa9060009087908790600401614808565b60206040518083038186803b158015611a1257600080fd5b505af4158015611a26573d6000803e3d6000fd5b505050506040513d601f19601f820116820180604052506106de9190810190613ab8565b6026546001600160a01b031690565b604051600160e01b63e5a2600902815260609073__SecretContractImpl____________________9063e5a2600990611a9b9060009087908790600401614a06565b60006040518083038186803b158015611ab357600080fd5b505af4158015611ac7573d6000803e3d6000fd5b505050506040513d6000823e601f3d908101601f191682016040526106de919081019061381e565b611af76132ab565b6000828152601e602090815260409182902082516101008101845281546001600160a01b0316815260018201549281019290925260028101549282019290925260038201546001600160401b03808216606084015268010000000000000000909104166080820152600482015460a082015260058083015491929160c084019160ff90911690811115611b8657fe5b6005811115611b9157fe5b815260068201805460408051602060026001851615610100026000190190941693909304601f8101849004840282018401909252818152938201939291830182828015611c1f5780601f10611bf457610100808354040283529160200191611c1f565b820191906000526020600020905b815481529060010190602001808311611c0257829003601f168201915b5050505050815250509050919050565b6026546001600160a01b0316331490565b60008060608073__WorkersImpl___________________________63198cc4cb6000876040518363ffffffff1660e01b8152600401611c809291906148a8565b60006040518083038186803b158015611c9857600080fd5b505af4158015611cac573d6000803e3d6000fd5b505050506040513d6000823e601f3d908101601f19168201604052611cd49190810190613af5565b93509350935093509193509193565b6000611ced613182565b6000611cf7613182565b60005b601b54811015611f1b57601b8054601d9160009184908110611d1857fe5b60009182526020808320909101546001600160a01b039081168452838201949094526040928301909120825160a081019093528054938416835291929083019060ff600160a01b909104166002811115611d6e57fe5b6002811115611d7957fe5b8152602001600182018054600181600116156101000203166002900480601f016020809104026020016040519081016040528092919081815260200182805460018160011615610100020316600290048015611e165780601f10611deb57610100808354040283529160200191611e16565b820191906000526020600020905b815481529060010190602001808311611df957829003601f168201915b505050505081526020016002820154815260200160038201805480602002602001604051908101604052809291908181526020016000905b82821015611ec157838290600052602060002090600302016040518060600160405290816000820160009054906101000a900460ff166003811115611e8f57fe5b6003811115611e9a57fe5b81526020016001820154815260200160028201548152505081526020019060010190611e4e565b50505050815250509150856001600160a01b031682600001516001600160a01b03161415611f1357601b805482908110611ef757fe5b6000918252602090912001546001600160a01b03169250611f1b565b600101611cfa565b509092509050915091565b6005546001600160a01b03163014611f5357604051600160e51b62461bcd0281526004016108c890614737565b33611f5c613182565b6001600160a01b038281166000908152601d6020908152604091829020825160a0810190935280549384168352919290830190600160a01b900460ff166002811115611fa457fe5b6002811115611faf57fe5b8152602001600182018054600181600116156101000203166002900480601f01602080910402602001604051908101604052809291908181526020018280546001816001161561010002031660029004801561204c5780601f106120215761010080835404028352916020019161204c565b820191906000526020600020905b81548152906001019060200180831161202f57829003601f168201915b505050505081526020016002820154815260200160038201805480602002602001604051908101604052809291908181526020016000905b828210156120f757838290600052602060002090600302016040518060600160405290816000820160009054906101000a900460ff1660038111156120c557fe5b60038111156120d057fe5b81526020016001820154815260200160028201548152505081526020019060010190612084565b505050915250909150600190508160200151600281111561211457fe5b1461213457604051600160e51b62461bcd0281526004016108c890614777565b8560008082815260208052604090206004015460ff16600181111561215557fe5b1461217557604051600160e51b62461bcd0281526004016108c890614797565b604051600160e21b6301c7aeeb02815273__TaskImpl______________________________9063071ebbac906121b8906000908b908b908b908b90600401614923565b60006040518083038186803b1580156121d057600080fd5b505af41580156121e4573d6000803e3d6000fd5b5050505050505050505050565b60006060826121fe613182565b6001600160a01b038281166000908152601d6020908152604091829020825160a0810190935280549384168352919290830190600160a01b900460ff16600281111561224657fe5b600281111561225157fe5b8152602001600182018054600181600116156101000203166002900480601f0160208091040260200160405190810160405280929190818152602001828054600181600116156101000203166002900480156122ee5780601f106122c3576101008083540402835291602001916122ee565b820191906000526020600020905b8154815290600101906020018083116122d157829003601f168201915b505050505081526020016002820154815260200160038201805480602002602001604051908101604052809291908181526020016000905b8282101561239957838290600052602060002090600302016040518060600160405290816000820160009054906101000a900460ff16600381111561236757fe5b600381111561237257fe5b81526020016001820154815260200160028201548152505081526020019060010190612326565b50505091525090915060009050816020015160028111156123b657fe5b14156123d757604051600160e51b62461bcd0281526004016108c890614787565b604051600160e01b632f68f03102815273__WorkersImpl___________________________90632f68f031906124149060009089906004016147e6565b60006040518083038186803b15801561242c57600080fd5b505af4158015612440573d6000803e3d6000fd5b505050506040513d6000823e601f3d908101601f19168201604052612468919081019061369b565b935093505050915091565b3361247c613182565b6001600160a01b038281166000908152601d6020908152604091829020825160a0810190935280549384168352919290830190600160a01b900460ff1660028111156124c457fe5b60028111156124cf57fe5b8152602001600182018054600181600116156101000203166002900480601f01602080910402602001604051908101604052809291908181526020018280546001816001161561010002031660029004801561256c5780601f106125415761010080835404028352916020019161256c565b820191906000526020600020905b81548152906001019060200180831161254f57829003601f168201915b505050505081526020016002820154815260200160038201805480602002602001604051908101604052809291908181526020016000905b8282101561261757838290600052602060002090600302016040518060600160405290816000820160009054906101000a900460ff1660038111156125e557fe5b60038111156125f057fe5b815260200160018201548152602001600282015481525050815260200190600101906125a4565b5050505081525050905061262a43612efb565b61264957604051600160e51b62461bcd0281526004016108c890614757565b60028160200151600281111561265b57fe5b1461267b57604051600160e51b62461bcd0281526004016108c8906147b7565b602254606082015110156126a457604051600160e51b62461bcd0281526004016108c8906146f7565b604051600160e11b6318a8dc7102815273__WorkersImpl___________________________90633151b8e29061090c906000906004016147d8565b604051600160e31b6312c8c46d02815260009073__WorkersImpl___________________________906396462368906119fa90869086906004016146d2565b6005546001600160a01b031690565b6005546001600160a01b0316301461275a57604051600160e51b62461bcd0281526004016108c890614737565b604051600160e01b638c91056d02815273__TaskImpl______________________________90638c91056d90610c51906000908890889088908890600401614975565b6127a5613182565b6001600160a01b038281166000908152601d6020908152604091829020825160a0810190935280549384168352919290830190600160a01b900460ff1660028111156127ed57fe5b60028111156127f857fe5b8152602001600182018054600181600116156101000203166002900480601f0160208091040260200160405190810160405280929190818152602001828054600181600116156101000203166002900480156128955780601f1061286a57610100808354040283529160200191612895565b820191906000526020600020905b81548152906001019060200180831161287857829003601f168201915b505050505081526020016002820154815260200160038201805480602002602001604051908101604052809291908181526020016000905b8282101561294057838290600052602060002090600302016040518060600160405290816000820160009054906101000a900460ff16600381111561290e57fe5b600381111561291957fe5b815260200160018201548152602001600282015481525050815260200190600101906128cd565b505050915250909392505050565b6005546001600160a01b0316301461297b57604051600160e51b62461bcd0281526004016108c890614737565b33612984613182565b6001600160a01b038281166000908152601d6020908152604091829020825160a0810190935280549384168352919290830190600160a01b900460ff1660028111156129cc57fe5b60028111156129d757fe5b8152602001600182018054600181600116156101000203166002900480601f016020809104026020016040519081016040528092919081815260200182805460018160011615610100020316600290048015612a745780601f10612a4957610100808354040283529160200191612a74565b820191906000526020600020905b815481529060010190602001808311612a5757829003601f168201915b505050505081526020016002820154815260200160038201805480602002602001604051908101604052809291908181526020016000905b82821015612b1f57838290600052602060002090600302016040518060600160405290816000820160009054906101000a900460ff166003811115612aed57fe5b6003811115612af857fe5b81526020016001820154815260200160028201548152505081526020019060010190612aac565b5050509152509091506001905081602001516002811115612b3c57fe5b14612b5c57604051600160e51b62461bcd0281526004016108c890614777565b8451600081815260208052604090206004015460019060ff1681811115612b7f57fe5b14612b9f57604051600160e51b62461bcd0281526004016108c890614727565b604051600160e01b63b1c57e7b02815273__TaskImpl______________________________9063b1c57e7b906114af906000908c908c908c908c908c90600401614a5b565b612bec611c2f565b612bf557600080fd5b6005546001600160a01b03163014612c2257604051600160e51b62461bcd0281526004016108c890614737565b604051600160e01b6366e13f4302815273__TaskImpl______________________________906366e13f43906111e490600090899089908990899089906004016149b7565b6005546001600160a01b03163014612c9457604051600160e51b62461bcd0281526004016108c890614737565b33612c9d613182565b6001600160a01b038281166000908152601d6020908152604091829020825160a0810190935280549384168352919290830190600160a01b900460ff166002811115612ce557fe5b6002811115612cf057fe5b8152602001600182018054600181600116156101000203166002900480601f016020809104026020016040519081016040528092919081815260200182805460018160011615610100020316600290048015612d8d5780601f10612d6257610100808354040283529160200191612d8d565b820191906000526020600020905b815481529060010190602001808311612d7057829003601f168201915b505050505081526020016002820154815260200160038201805480602002602001604051908101604052809291908181526020016000905b82821015612e3857838290600052602060002090600302016040518060600160405290816000820160009054906101000a900460ff166003811115612e0657fe5b6003811115612e1157fe5b81526020016001820154815260200160028201548152505081526020019060010190612dc5565b5050509152509091506001905081602001516002811115612e5557fe5b14612e7557604051600160e51b62461bcd0281526004016108c890614777565b866001600082815260208052604090206004015460ff166001811115612e9757fe5b14612eb757604051600160e51b62461bcd0281526004016108c890614727565b604051600160e61b6289b28102815273__TaskImpl______________________________9063226ca040906114af906000908c908c908c908c908c906004016148c3565b604051600160e31b6304d5c11302815260009073__WorkersImpl___________________________906326ae089890612f3a90849086906004016148a8565b60206040518083038186803b158015612f5257600080fd5b505af4158015612f66573d6000803e3d6000fd5b505050506040513d601f19601f820116820180604052506106e19190810190613ab8565b336000908152601d60205260409020546001600160a01b031690565b60015490565b8060016000828152601e6020526040902060059081015460ff1690811115612fd057fe5b14612ff057604051600160e51b62461bcd0281526004016108c890614747565b604051600160e01b631c9a715b02815273__TaskImpl______________________________90631c9a715b9061090c9060009086906004016148a8565b613035611c2f565b61303e57600080fd5b61304781613113565b50565b613052611c2f565b61305b57600080fd5b6005546001600160a01b0316301461308857604051600160e51b62461bcd0281526004016108c890614737565b604051600160e01b6368fac41b02815273__UpgradeImpl___________________________906368fac41b906130c59060009085906004016147e6565b60006040518083038186803b1580156130dd57600080fd5b505af41580156130f1573d6000803e3d6000fd5b5050505050565b6001600160a01b031660009081526021602052604090205490565b6001600160a01b03811661312657600080fd5b6026546040516001600160a01b038084169216907f8be0079c531659141344cd1fd0a4f28419497f9722a3daafe3b4186f6b6457e090600090a3602680546001600160a01b0319166001600160a01b0392909216919091179055565b6040805160a081019091526000808252602082019081526020016060815260200160008152602001606081525090565b6040805160608101909152806000815260200160008152602001600081525090565b828054600181600116156101000203166002900490600052602060002090601f016020900481019282601f1061321557805160ff1916838001178555613242565b82800160010185558215613242579182015b82811115613242578251825591602001919060010190613227565b5061324e9291506132f0565b5090565b6040518061028001604052806005905b61326a61330a565b8152602001906001900390816132625790505090565b6040805160a08101825260008082526020820181905291810182905260608082015290608082015290565b6040805161010081018252600080825260208201819052918101829052606081018290526080810182905260a081018290529060c08201908152602001606081525090565b610d4391905b8082111561324e57600081556001016132f6565b6040518060800160405280600081526020016060815260200160608152602001600081525090565b80356106e181614cd8565b80516106e181614cd8565b600082601f83011261335957600080fd5b815161336c61336782614b6f565b614b49565b9150818183526020840193506020810190508385602084028201111561339157600080fd5b60005b838110156133bd57816133a7888261333d565b8452506020928301929190910190600101613394565b5050505092915050565b600082601f8301126133d857600080fd5b60046133e661336782614b8f565b915081838560208402820111156133fc57600080fd5b60005b838110156133bd57816134128882613508565b84525060209283019291909101906001016133ff565b600082601f83011261343957600080fd5b815161344761336782614b6f565b9150818183526020840193506020810190508385602084028201111561346c57600080fd5b60005b838110156133bd57816134828882613513565b845250602092830192919091019060010161346f565b600082601f8301126134a957600080fd5b81516134b761336782614b6f565b915081818352602084019350602081019050838560208402820111156134dc57600080fd5b60005b838110156133bd57816134f28882613513565b84525060209283019291909101906001016134df565b80356106e181614cec565b80516106e181614cec565b600082601f83011261352f57600080fd5b813561353d61336782614bac565b9150808252602083016020830185838301111561355957600080fd5b613564838284614c6e565b50505092915050565b600082601f83011261357e57600080fd5b815161358c61336782614bac565b915080825260208301602083018583830111156135a857600080fd5b613564838284614c7a565b80516106e181614cf5565b6000606082840312156135d057600080fd5b6135da6060614b49565b905060006135e884846135b3565b82525060206135f984848301613513565b602083015250604061360d84828501613513565b60408301525092915050565b80356106e181614d02565b60006020828403121561363657600080fd5b60006136428484613332565b949350505050565b6000806040838503121561365d57600080fd5b60006136698585613332565b92505060208301356001600160401b0381111561368557600080fd5b6136918582860161351e565b9150509250929050565b600080604083850312156136ae57600080fd5b60006136ba858561333d565b92505060208301516001600160401b038111156136d657600080fd5b6136918582860161356d565b6000806000606084860312156136f757600080fd5b60006137038686613332565b93505060208401356001600160401b0381111561371f57600080fd5b61372b8682870161351e565b92505060408401356001600160401b0381111561374757600080fd5b6137538682870161351e565b9150509250925092565b6000806040838503121561377057600080fd5b600061377c8585613332565b925050602061369185828601613508565b60006020828403121561379f57600080fd5b81516001600160401b038111156137b557600080fd5b61364284828501613348565b600080604083850312156137d457600080fd5b82516001600160401b038111156137ea57600080fd5b6137f685828601613348565b92505060208301516001600160401b0381111561381257600080fd5b61369185828601613498565b60006020828403121561383057600080fd5b81516001600160401b0381111561384657600080fd5b61364284828501613428565b60006020828403121561386457600080fd5b60006136428484613508565b600080600080600060a0868803121561388857600080fd5b60006138948888613508565b95505060206138a588828901613508565b94505060406138b688828901613508565b93505060606138c788828901613619565b92505060808601356001600160401b038111156138e357600080fd5b6138ef8882890161351e565b9150509295509295909350565b6000806000806080858703121561391257600080fd5b600061391e8787613508565b945050602061392f87828801613508565b935050604061394087828801613619565b92505060608501356001600160401b0381111561395c57600080fd5b6139688782880161351e565b91505092959194509250565b6000806000806080858703121561398a57600080fd5b60006139968787613508565b94505060206139a787828801613619565b93505060406139b887828801613619565b925050606061396887828801613508565b600080600080600060a086880312156139e157600080fd5b60006139ed8888613508565b95505060206139fe88828901613619565b9450506040613a0f88828901613619565b9350506060613a2088828901613508565b92505060806138ef88828901613508565b600060208284031215613a4357600080fd5b81356001600160401b03811115613a5957600080fd5b6136428482850161351e565b60008060408385031215613a7857600080fd5b82356001600160401b03811115613a8e57600080fd5b6136698582860161351e565b600060608284031215613aac57600080fd5b600061364284846135be565b600060208284031215613aca57600080fd5b60006136428484613513565b60008060408385031215613ae957600080fd5b600061377c8585613508565b60008060008060808587031215613b0b57600080fd5b6000613b178787613513565b9450506020613b2887828801613513565b93505060408501516001600160401b03811115613b4457600080fd5b613b5087828801613348565b92505060608501516001600160401b03811115613b6c57600080fd5b61396887828801613498565b600080600060608486031215613b8d57600080fd5b6000613b998686613508565b935050602061372b86828701613508565b60008060008060006101008688031215613bc357600080fd5b6000613bcf8888613619565b9550506020613be088828901613332565b9450506040613bf1888289016133c7565b93505060c08601356001600160401b03811115613c0d57600080fd5b613c198882890161351e565b92505060e08601356001600160401b038111156138e357600080fd5b6000613c418383613c75565b505060200190565b6000613c418383613fc2565b6000613c618383614494565b505060600190565b60006106de83836145a9565b613c7e81614bf2565b82525050565b6000613c8f82614bd9565b613c998185614be9565b9350613ca483614bd3565b8060005b83811015613cd2578151613cbc8882613c35565b9750613cc783614bd3565b925050600101613ca8565b509495945050505050565b6000613ce882614bd9565b613cf28185614be9565b9350613cfd83614bd3565b8060005b83811015613cd2578151613d158882613c35565b9750613d2083614bd3565b925050600101613d01565b613d3481614bdd565b613d3e8184611871565b9250613d4982610d43565b8060005b83811015610938578151613d618782613c49565b9650613d6c83614bd3565b925050600101613d4d565b6000613d8282614bd9565b613d8c8185614be9565b9350613d9783614bd3565b8060005b83811015613cd2578151613daf8882613c49565b9750613dba83614bd3565b925050600101613d9b565b6000613dd082614bd9565b613dda8185614be9565b9350613de583614bd3565b8060005b83811015613cd2578151613dfd8882613c49565b9750613e0883614bd3565b925050600101613de9565b6000613e1e82614bd9565b613e288185614be9565b9350613e3383614bd3565b8060005b83811015613cd2578151613e4b8882613c55565b9750613e5683614bd3565b925050600101613e37565b6000613e6c82614bd9565b613e768185614be9565b9350613e8183614bd3565b8060005b83811015613cd2578151613e998882613c55565b9750613ea483614bd3565b925050600101613e85565b6000613eba82614be3565b613ec48185611871565b935083602082028501613ed685610d43565b8060005b85811015613f105784840389528151613ef38582613c69565b9450613efe83614bd3565b60209a909a0199925050600101613eda565b5091979650505050505050565b6000613f2882614bd9565b613f328185614be9565b9350613f3d83614bd3565b8060005b83811015613cd2578151613f558882613c49565b9750613f6083614bd3565b925050600101613f41565b6000613f7682614bd9565b613f808185614be9565b9350613f8b83614bd3565b8060005b83811015613cd2578151613fa38882613c49565b9750613fae83614bd3565b925050600101613f8f565b613c7e81614bfd565b613c7e81610d43565b6000613fd682614bd9565b613fe08185614be9565b9350613ff0818560208601614c7a565b613ff981614ca6565b9093019392505050565b613c7e81614c42565b613c7e81614c4d565b613c7e81614c58565b613c7e81614c63565b6000614034602283614be9565b7f576f726b657227732062616c616e6365206973206e6f742073756666696369658152600160f21b611b9d02602082015260400192915050565b600061407b601883614be9565b7f4e6f74206120756e69717565207369676e696e67206b65790000000000000000815260200192915050565b60006140b4602783614be9565b7f576f726b65722773206c617374206c6f67206973206e6f74206f66204c6f674f8152600160c81b667574207479706502602082015260400192915050565b6000614100601c83614be9565b7f53656372657420636f6e7472616374206e6f74206465706c6f79656400000000815260200192915050565b6000614139601b83614be9565b7f4e6f74207570646174656420456e69676d6120636f6e74726163740000000000815260200192915050565b6000614172601383614be9565b7f5461736b206973206e6f742077616974696e6700000000000000000000000000815260200192915050565b60006141ab602783614be9565b7f5072696e636970616c206e6f646520686173206e6f74206265656e20696e69748152600160ca1b661a585b1a5e995902602082015260400192915050565b60006141f7602e83614be9565b7f43616e6e6f7420776974686472617720696e2073616d652065706f636820617381527f206c6f67206f7574206576656e74000000000000000000000000000000000000602082015260400192915050565b6000614256601483614be9565b7f576f726b6572206e6f74206c6f6767656420696e000000000000000000000000815260200192915050565b600061428f601383614be9565b7f556e7265676973746572656420776f726b657200000000000000000000000000815260200192915050565b60006142c8602083614be9565b7f53656372657420636f6e747261637420616c7265616479206465706c6f796564815260200192915050565b6000614301602083614be9565b7f4e6f742066726f6d207570646174656420456e69676d6120636f6e7472616374815260200192915050565b600061433a602783614be9565b7f576f726b6572206e6f742072656769737465726564206f72206e6f74206c6f678152600160ca1b6619d959081bdd5d02602082015260400192915050565b805160009060a084019061438d8582613c75565b5060208301516143a06020860182613fc2565b5060408301516143b36040860182613fc2565b50606083015184820360608601526143cb8282613dc5565b91505060808301516143e06080860182614003565b509392505050565b9052565b80516000906101008401906144018582613c75565b5060208301516144146020860182613fc2565b5060408301516144276040860182613fc2565b50606083015161443a6060860182614604565b50608083015161444d6080860182614604565b5060a083015161446060a0860182613fc2565b5060c083015161447360c086018261400c565b5060e083015184820360e086015261448b8282613fcb565b95945050505050565b805160608301906144a58482614015565b5060208201516144b86020850182613fc2565b5060408201516144cb6040850182613fc2565b50505050565b805160009060a08401906144e58582613c75565b5060208301516144f8602086018261401e565b50604083015184820360408601526145108282613fcb565b91505060608301516145256060860182613fc2565b506080830151848203608086015261448b8282613e13565b805160009060a08401906145518582613c75565b506020830151614564602086018261401e565b506040830151848203604086015261457c8282613fcb565b91505060608301516145916060860182613fc2565b506080830151848203608086015261448b8282613e61565b805160009060808401906145bd8582613fc2565b50602083015184820360208601526145d58282613cdd565b915050604083015184820360408601526145ef8282613f6b565b91505060608301516143e06060860182613fc2565b613c7e81614c36565b602081016106e18284613c75565b604081016146298285613c75565b81810360208301526136428184613fcb565b604081016146498285613c75565b818103602083015261364281846144d1565b602080825281016106de8184613c84565b6040808252810161467d8185613c84565b905081810360208301526136428184613f1d565b602080825281016106de8184613d77565b602080825281016106de8184613eaf565b602081016106e18284613fb9565b602080825281016106de8184613fcb565b604080825281016146e38185613fcb565b905081810360208301526136428184613fcb565b602080825281016106e181614027565b602080825281016106e18161406e565b602080825281016106e1816140a7565b602080825281016106e1816140f3565b602080825281016106e18161412c565b602080825281016106e181614165565b602080825281016106e18161419e565b602080825281016106e1816141ea565b602080825281016106e181614249565b602080825281016106e181614282565b602080825281016106e1816142bb565b602080825281016106e1816142f4565b602080825281016106e18161432d565b602080825281016106de8184614379565b602081016106e182846143e8565b604081016147f482856143e8565b6148016020830184613c75565b9392505050565b6060810161481682866143e8565b6148236020830185613c75565b818103604083015261448b8184613fcb565b6080810161484382876143e8565b6148506020830186613c75565b81810360408301526148628185613fcb565b905081810360608301526148768184613fcb565b9695505050505050565b6060810161488e82866143e8565b61489b6020830185613c75565b6136426040830184613fc2565b604081016148b682856143e8565b6148016020830184613fc2565b60c081016148d182896143e8565b6148de6020830188613fc2565b6148eb6040830187613fc2565b6148f86060830186613fc2565b6149056080830185614604565b81810360a08301526149178184613fcb565b98975050505050505050565b60a0810161493182886143e8565b61493e6020830187613fc2565b61494b6040830186613fc2565b6149586060830185614604565b818103608083015261496a8184613fcb565b979650505050505050565b60a0810161498382886143e8565b6149906020830187613fc2565b61499d6040830186614604565b6149aa6060830185614604565b6148766080830184613fc2565b60c081016149c582896143e8565b6149d26020830188613fc2565b6149df6040830187614604565b6149ec6060830186614604565b6149f96080830185613fc2565b61496a60a0830184613fc2565b60608101614a1482866143e8565b61489b6020830185613fc2565b60808101614a2f82876143e8565b614a3c6020830186613fc2565b614a496040830185613fc2565b81810360608301526148768184613fcb565b6101208101614a6a82896143e8565b614a776020830188614604565b614a846040830187613c75565b614a916060830186613d2b565b81810360e0830152614aa38185613fcb565b90508181036101008301526149178184613fcb565b602080825281016106de81846143ec565b602080825281016106de81846144d1565b60408082528101614aeb818561453d565b90506148016020830184613fc2565b602081016106e18284613fc2565b60808101614b168287613fc2565b614b236020830186613fc2565b8181036040830152614b358185613c84565b905081810360608301526148768184613f1d565b6040518181016001600160401b0381118282101715614b6757600080fd5b604052919050565b60006001600160401b03821115614b8557600080fd5b5060209081020190565b60006001600160401b03821115614ba557600080fd5b5060200290565b60006001600160401b03821115614bc257600080fd5b506020601f91909101601f19160190565b60200190565b5190565b50600490565b50600590565b90815260200190565b60006106e182614c2a565b151590565b8061187181614cb0565b8061187181614cba565b8061187181614cc4565b8061187181614cce565b6001600160a01b031690565b6001600160401b031690565b60006106e182614c02565b60006106e182614c0c565b60006106e182614c16565b60006106e182614c20565b82818337506000910152565b60005b83811015614c95578181015183820152602001614c7d565b838111156144cb5750506000910152565b601f01601f191690565b6002811061304757fe5b6006811061304757fe5b6004811061304757fe5b6003811061304757fe5b614ce181614bf2565b811461304757600080fd5b614ce181610d43565b6004811061304757600080fd5b614ce181614c3656fea265627a7a72305820855e377116c3639c7fc2a5531ca43341606faed8c3303231246aef382dafacfd6c6578706572696d656e74616cf50037",
  "source": "pragma solidity ^0.5.0;\npragma experimental ABIEncoderV2;\n\nimport \"openzeppelin-solidity/contracts/math/SafeMath.sol\";\nimport \"openzeppelin-solidity/contracts/cryptography/ECDSA.sol\";\nimport \"openzeppelin-solidity/contracts/ownership/Ownable.sol\";\nimport \"./utils/SolRsaVerify.sol\";\n\nimport { WorkersImpl } from \"./impl/WorkersImpl.sol\";\nimport { PrincipalImpl } from \"./impl/PrincipalImpl.sol\";\nimport { TaskImpl } from \"./impl/TaskImpl.sol\";\nimport { UpgradeImpl } from \"./impl/UpgradeImpl.sol\";\nimport { SecretContractImpl } from \"./impl/SecretContractImpl.sol\";\nimport { EnigmaCommon } from \"./impl/EnigmaCommon.sol\";\nimport { EnigmaState } from \"./impl/EnigmaState.sol\";\nimport { EnigmaEvents } from \"./impl/EnigmaEvents.sol\";\nimport { EnigmaStorage } from \"./impl/EnigmaStorage.sol\";\nimport { Getters } from \"./impl/Getters.sol\";\nimport { ERC20 } from \"./interfaces/ERC20.sol\";\n\ncontract Enigma is EnigmaStorage, EnigmaEvents, Getters, Ownable {\n    using SafeMath for uint256;\n    using ECDSA for bytes32;\n\n    // ========================================== Constructor ==========================================\n\n    constructor(address _tokenAddress, address _principal, address _exchangeRate, uint _epochSize,\n        uint _timeoutThreshold) public {\n        state.engToken = ERC20(_tokenAddress);\n        state.epochSize = _epochSize;\n        state.taskTimeoutSize = _timeoutThreshold * state.epochSize;\n        state.principal = _principal;\n        state.exchangeRate = _exchangeRate;\n        state.updatedEnigmaContractAddress = address(this);\n        state.stakingThreshold = 1;\n        state.workerGroupSize = 1;\n    }\n\n    // ========================================== Modifiers ==========================================\n\n    /**\n    * Checks if the custodian wallet is registered as a worker\n    *\n    * @param _user The custodian address of the worker\n    */\n    modifier workerRegistered(address _user) {\n        EnigmaCommon.Worker memory worker = state.workers[_user];\n        require(worker.status != EnigmaCommon.WorkerStatus.Unregistered, \"Unregistered worker\");\n        _;\n    }\n\n    /**\n    * Checks if the custodian wallet is logged in as a worker\n    *\n    * @param _user The custodian address of the worker\n    */\n    modifier workerLoggedIn(address _user) {\n        EnigmaCommon.Worker memory worker = state.workers[_user];\n        require(worker.status == EnigmaCommon.WorkerStatus.LoggedIn, \"Worker not logged in\");\n        _;\n    }\n\n    /**\n    * Checks if the custodian wallet is logged out as a worker\n    *\n    * @param _user The custodian address of the worker\n    */\n    modifier workerLoggedOut(address _user) {\n        EnigmaCommon.Worker memory worker = state.workers[_user];\n        require(worker.status == EnigmaCommon.WorkerStatus.LoggedOut, \"Worker not logged out\");\n        _;\n    }\n\n    /**\n    * Checks if worker can log in\n    *\n    * @param _user The custodian address of the worker\n    */\n    modifier canLogIn(address _user) {\n        EnigmaCommon.Worker memory worker = state.workers[_user];\n        require(getFirstBlockNumber(block.number) != 0, \"Principal node has not been initialized\");\n        require(worker.status == EnigmaCommon.WorkerStatus.LoggedOut, \"Worker not registered or not logged out\");\n        require(worker.balance >= state.stakingThreshold, \"Worker's balance is not sufficient\");\n        _;\n    }\n\n    /**\n    * Checks if the worker can withdraw\n    *\n    * @param _user The custodian address of the worker\n    */\n    modifier canWithdraw(address _user) {\n        EnigmaCommon.Worker memory worker = state.workers[_user];\n        require(worker.status == EnigmaCommon.WorkerStatus.LoggedOut, \"Worker not registered or not logged out\");\n        EnigmaCommon.WorkerLog memory workerLog = WorkersImpl.getLatestWorkerLogImpl(worker, block.number);\n        require(workerLog.workerEventType == EnigmaCommon.WorkerLogType.LogOut,\n            \"Worker's last log is not of LogOut type\");\n        require(getFirstBlockNumber(block.number) > workerLog.blockNumber,\n            \"Cannot withdraw in same epoch as log out event\");\n        _;\n    }\n\n    /**\n    * Checks secret contract has not been deployed\n    *\n    * @param _scAddr Secret contract address\n    */\n    modifier contractUndefined(bytes32 _scAddr) {\n        require(state.contracts[_scAddr].status == EnigmaCommon.SecretContractStatus.Undefined, \"Secret contract already deployed\");\n        _;\n    }\n\n    /**\n    * Checks secret contract has been deployed\n    *\n    * @param _scAddr Secret contract address\n    */\n    modifier contractDeployed(bytes32 _scAddr) {\n        require(state.contracts[_scAddr].status == EnigmaCommon.SecretContractStatus.Deployed, \"Secret contract not deployed\");\n        _;\n    }\n\n    /**\n    * Checks task record has been created and is still pending receipt\n    *\n    * @param _taskId Task ID\n    */\n    modifier taskWaiting(bytes32 _taskId) {\n        require(state.tasks[_taskId].status == EnigmaCommon.TaskStatus.RecordCreated, \"Task is not waiting\");\n        _;\n    }\n\n    /**\n    * Ensure signing key used for registration is unique\n    *\n    * @param _signer Signing key\n    */\n    modifier isUniqueSigningKey(address _signer) {\n        for (uint i = 0; i < state.workerAddresses.length; i++) {\n            require(state.workers[state.workerAddresses[i]].signer != _signer, \"Not a unique signing key\");\n        }\n        _;\n    }\n\n    /**\n    * Ensure that the contract's context is the updated contract\n    *\n    */\n    modifier isUpdatedEnigmaContract() {\n        require(address(this) == state.updatedEnigmaContractAddress, \"Not updated Enigma contract\");\n        _;\n    }\n\n    /**\n    * Ensure the sender of the recent call is the updated contract\n    *\n    */\n    modifier fromUpdatedEnigmaContract() {\n        require(msg.sender == state.updatedEnigmaContractAddress, \"Not from updated Enigma contract\");\n        _;\n    }\n\n    // ========================================== Functions ==========================================\n\n    /**\n    * Registers a new worker or change the signer parameters of an existing\n    * worker. This should be called by every worker (and the principal)\n    * node in order to receive tasks.\n    *\n    * @param _signer The signer address, derived from the enclave public key\n    * @param _report The RLP encoded report returned by the IAS\n    * @param _signature Signature\n    */\n    function register(address _signer, bytes memory _report, bytes memory _signature)\n    public\n    isUpdatedEnigmaContract\n    isUniqueSigningKey(_signer)\n    {\n        WorkersImpl.registerImpl(state, _signer, _report, _signature);\n    }\n\n    /**\n    * Deposits ENG stake into contract from worker. Worker must be registered to do so.\n    *\n    * @param _custodian The worker's ETH address\n    * @param _amount The amount of ENG, in grains format (10 ** 8), to deposit\n    */\n    function deposit(address _custodian, uint _amount)\n    public\n    isUpdatedEnigmaContract\n    workerRegistered(_custodian)\n    {\n        WorkersImpl.depositImpl(state, _custodian, _amount);\n    }\n\n    /**\n    * Withdraws ENG stake from contract back to worker. Worker must be registered to do so.\n    *\n    * @param _amount The amount of ENG, in grains format (10 ** 8), to deposit\n    */\n    function withdraw(uint _amount)\n    public\n    canWithdraw(msg.sender)\n    {\n        WorkersImpl.withdrawImpl(state, _amount);\n    }\n\n    /**\n    * Login worker. Worker must be registered to do so, and must be logged in at start of epoch to be part of worker\n    * selection process.\n    */\n    function login() public canLogIn(msg.sender) {\n        WorkersImpl.loginImpl(state);\n    }\n\n    /**\n    * Logout worker. Worker must be logged in to do so.\n    */\n    function logout() public workerLoggedIn(msg.sender) {\n        WorkersImpl.logoutImpl(state);\n    }\n\n    /**\n    * Deploy secret contract from user, called by the worker.\n    *\n    * @param _taskId Task ID of corresponding deployment task (taskId == scAddr)\n    * @param _codeHash Deployed bytecode hash\n    * @param _gasUsed Gas used for task\n    * @param _sig Worker's signature for deployment\n    */\n    function deploySecretContractFailure(\n        bytes32 _taskId,\n        bytes32 _codeHash,\n        uint64 _gasUsed,\n        bytes memory _sig\n    )\n    public\n    isUpdatedEnigmaContract\n    workerLoggedIn(msg.sender)\n    contractUndefined(_taskId)\n    {\n        TaskImpl.deploySecretContractFailureImpl(state, _taskId, _codeHash, _gasUsed, _sig);\n    }\n\n    /**\n    * Deploy secret contract from user, called by the worker.\n    *\n    * @param _gasUsed Gas used for task\n    * @param _optionalEthereumContractAddress Initial state delta hash as a result of the contract's constructor\n    * @param _bytes32s [taskId, preCodeHash, codeHash, initStateDeltaHash]\n    * @param _optionalEthereumData Initial state delta hash as a result of the contract's constructor\n    * @param _sig Worker's signature for deployment\n    */\n    function deploySecretContract(\n        uint64 _gasUsed,\n        address _optionalEthereumContractAddress,\n        bytes32[4] memory _bytes32s,\n        bytes memory _optionalEthereumData,\n        bytes memory _sig\n    )\n    public\n    isUpdatedEnigmaContract\n    workerLoggedIn(msg.sender)\n    contractUndefined(_bytes32s[0])\n    {\n        TaskImpl.deploySecretContractImpl(state, _gasUsed, _optionalEthereumContractAddress, _bytes32s,\n            _optionalEthereumData, _sig);\n    }\n\n    /**\n    * Check if secret contract has been deployed\n    *\n    * @return  Number of deployed secret contracts\n    */\n    function countSecretContracts()\n    public\n    view\n    returns (uint)\n    {\n        return SecretContractImpl.countSecretContractsImpl(state);\n    }\n\n    /**\n    * Get deployed secret contract addresses within a range\n    *\n    * @param _start Start of range\n    * @param _stop End of range\n    * @return Subset of deployed secret contract addresses\n    */\n    function getSecretContractAddresses(uint _start, uint _stop)\n    public\n    view\n    returns (bytes32[] memory)\n    {\n        return SecretContractImpl.getSecretContractAddressesImpl(state, _start, _stop);\n    }\n\n    /**\n    * Create task record for contract deployment. This is necessary for transferring task fee from sender to contract,\n    * generating the unique taskId, saving the block number when the record was mined, and incrementing the user's\n    * task deployment counter nonce. We revert the process if the locally-generated nonce value does not match\n    * the on-chain-computed nonce since this indicates that the secret contract address the user has generated is\n    * invalid.\n    *\n    * @param _inputsHash Hash of encrypted fn sig, encrypted ABI-encoded args, and predeployed bytecode hash\n    * @param _gasLimit ENG gas limit\n    * @param _gasPx ENG gas price in grains format (10 ** 8)\n    * @param _firstBlockNumber Locally-computed first block number of epoch\n    * @param _nonce Locally-computed nonce value for this deployment\n    */\n    function createDeploymentTaskRecord(\n        bytes32 _inputsHash,\n        uint64 _gasLimit,\n        uint64 _gasPx,\n        uint _firstBlockNumber,\n        uint _nonce\n    )\n    public\n    onlyOwner\n    isUpdatedEnigmaContract\n    {\n        TaskImpl.createDeploymentTaskRecordImpl(state, _inputsHash, _gasLimit, _gasPx, _firstBlockNumber, _nonce);\n    }\n\n    /**\n    * Create task record for task for regular tasks. This is necessary for transferring task fee from sender to\n    * contract, generating the unique taskId, saving the block number when the record was mined, and incrementing\n    * the user's task deployment counter nonce.\n    *\n    * @param _inputsHash Hash of encrypted fn sig, encrypted ABI-encoded args, and contract address\n    * @param _gasLimit ENG gas limit\n    * @param _gasPx ENG gas price in grains format (10 ** 8)\n    * @param _firstBlockNumber Locally-computed first block number of epoch\n    */\n    function createTaskRecord(\n        bytes32 _inputsHash,\n        uint64 _gasLimit,\n        uint64 _gasPx,\n        uint _firstBlockNumber\n    )\n    public\n    isUpdatedEnigmaContract\n    {\n        TaskImpl.createTaskRecordImpl(state, _inputsHash, _gasLimit, _gasPx, _firstBlockNumber);\n    }\n\n    /**\n    * Commit the computation task results on chain by first verifying the receipt and then the worker's signature.\n    * The task record is finalized and the worker is credited with the task fee.\n    *\n    * @param _gasUsed Gas used for task computation\n    * @param _optionalEthereumContractAddress Output state hash\n    * @param _bytes32s [scAddr, taskId, stateDeltaHash, outputHash]\n    * @param _optionalEthereumData Output state hash\n    * @param _sig Worker's signature\n    */\n    function commitReceipt(\n        uint64 _gasUsed,\n        address _optionalEthereumContractAddress,\n        bytes32[4] memory _bytes32s,\n        bytes memory _optionalEthereumData,\n        bytes memory _sig\n    )\n    public\n    isUpdatedEnigmaContract\n    workerLoggedIn(msg.sender)\n    contractDeployed(_bytes32s[0])\n    {\n        TaskImpl.commitReceiptImpl(state, _gasUsed, _optionalEthereumContractAddress,\n            _bytes32s, _optionalEthereumData, _sig);\n    }\n\n    /**\n    * Commit the computation task failure on chain - the task fee is transfered to the worker and the status is\n    * updated to indicate task failure.\n    *\n    * @param _scAddr Secret contract address\n    * @param _taskId Unique taskId\n    * @param _outputHash Output state hash\n    * @param _gasUsed Gas used for task computation\n    * @param _sig Worker's signature\n    */\n    function commitTaskFailure(\n        bytes32 _scAddr,\n        bytes32 _taskId,\n        bytes32 _outputHash,\n        uint64 _gasUsed,\n        bytes memory _sig\n    )\n    public\n    isUpdatedEnigmaContract\n    workerLoggedIn(msg.sender)\n    contractDeployed(_scAddr)\n    {\n        TaskImpl.commitTaskFailureImpl(state, _scAddr, _taskId, _outputHash, _gasUsed, _sig);\n    }\n\n    /**\n    * Return the task fee to the task creator when too many blocks have elapsed without task resolution.\n    *\n    * @param _taskId Unique taskId\n    */\n    function returnFeesForTask(bytes32 _taskId)\n    public\n    taskWaiting(_taskId)\n    {\n        TaskImpl.returnFeesForTaskImpl(state, _taskId);\n    }\n\n    /**\n    * Reparameterizing workers with a new seed\n    * This should be called for each epoch by the Principal node\n    *\n    * @param _blockNumber Block number principal node is attempting to set worker params\n    * @param _seed The random integer generated by the enclave\n    * @param _sig Principal node's signature\n    */\n    function setWorkersParams(uint _blockNumber, uint _seed, bytes memory _sig)\n    public\n    isUpdatedEnigmaContract\n    workerRegistered(msg.sender)\n    {\n        PrincipalImpl.setWorkersParamsImpl(state, _blockNumber, _seed, _sig);\n    }\n\n    /**\n    * Get active workers before a certain block number\n    *\n    * @param _blockNumber Block number\n    */\n    function getActiveWorkers(uint _blockNumber)\n    public\n    view\n    returns (address[] memory, uint[] memory)\n    {\n        return PrincipalImpl.getActiveWorkersImpl(state, _blockNumber);\n    }\n\n    /**\n    * Get the first block number of an epoch that a given block number belongs to\n    *\n    * @param _blockNumber Block number\n    * @return Block number\n    */\n    function getFirstBlockNumber(uint _blockNumber)\n    public\n    view\n    returns (uint) {\n        return WorkersImpl.getFirstBlockNumberImpl(state, _blockNumber);\n    }\n\n    /**\n    * Get worker params for an epoch given a particular block number\n    *\n    * @param _blockNumber Block number\n    * @return Epoch's first block number\n    * @return Seed\n    * @return Array of worker's signing addresses\n    * @return Array of worker's stakes\n    */\n    function getWorkerParams(uint _blockNumber)\n    public\n    view\n    returns (uint, uint, address[] memory, uint[] memory) {\n        return WorkersImpl.getWorkerParamsImpl(state, _blockNumber);\n    }\n\n    /**\n    * Select a group of workers for the computation task given the block number of the task record (implies the epoch)\n    * and the secret contract address.\n    *\n    * @param _blockNumber Block number the task record was mined\n    * @param _scAddr Secret contract address\n    * @return Selected workers' addresses\n    */\n    function getWorkerGroup(uint _blockNumber, bytes32 _scAddr)\n    public\n    view\n    returns (address[] memory)\n    {\n        return WorkersImpl.getWorkerGroupImpl(state, _blockNumber, _scAddr);\n    }\n\n    /**\n    * The RLP encoded report returned by the IAS server\n    *\n    * @param _custodian The worker's custodian address\n    */\n    function getReport(address _custodian)\n    public\n    view\n    workerRegistered(_custodian)\n    returns (address, bytes memory)\n    {\n        return WorkersImpl.getReportImpl(state, _custodian);\n    }\n\n    /**\n    * This verifies an IAS report with hard coded modulus and exponent of Intel's certificate.\n    * @param _data The report itself\n    * @param _signature The signature of the report\n    */\n    function verifyReport(bytes memory _data, bytes memory _signature)\n    public\n    view\n    returns (uint)\n    {\n        return WorkersImpl.verifyReportImpl(_data, _signature);\n    }\n\n    /**\n    * Upgrade Enigma Contract\n    * @param _updatedEnigmaContractAddress Updated newly-deployed Enigma contract address\n    */\n    function upgradeEnigmaContract(address _updatedEnigmaContractAddress)\n    public\n    onlyOwner\n    isUpdatedEnigmaContract\n    {\n        return UpgradeImpl.upgradeEnigmaContractImpl(state, _updatedEnigmaContractAddress);\n    }\n\n    /**\n    * Transfer worker stake from old contract to new contract upon registration\n    * @param _workerAddress Newly-registered worker address\n    * @param _sig Signature\n    */\n    function transferWorkerStakePostUpgrade(address _workerAddress, bytes memory _sig)\n    public\n    fromUpdatedEnigmaContract\n    returns (uint256)\n    {\n        return UpgradeImpl.transferWorkerStakePostUpgradeImpl(state, _workerAddress, _sig);\n    }\n\n    /**\n    * Set mrSigner\n    * @param _mrSigner mrSigner\n    */\n    function setMrSigner(bytes memory _mrSigner)\n    public\n    onlyOwner\n    {\n        state.mrSigner = _mrSigner;\n    }\n\n    /**\n    * Set isvSvn\n    * @param _isvSvn mrSigner\n    */\n    function setIsvSvn(bytes memory _isvSvn)\n    public\n    onlyOwner\n    {\n        state.isvSvn = _isvSvn;\n    }\n}\n",
  "sourcePath": "/root/enigma-contract/contracts/Enigma.sol",
  "compiler": {
    "name": "solc",
    "version": "0.5.8+commit.23d335f2.Emscripten.clang"
  },
  "schemaVersion": "3.0.17",
  "updatedAt": "2019-11-07T13:34:20.755Z",
  "devdoc": {
    "methods": {
      "commitReceipt(uint64,address,bytes32[4],bytes,bytes)": {
        "params": {
          "_bytes32s": "[scAddr, taskId, stateDeltaHash, outputHash]",
          "_gasUsed": "Gas used for task computation",
          "_optionalEthereumContractAddress": "Output state hash",
          "_optionalEthereumData": "Output state hash",
          "_sig": "Worker's signature"
        }
      },
      "commitTaskFailure(bytes32,bytes32,bytes32,uint64,bytes)": {
        "params": {
          "_gasUsed": "Gas used for task computation",
          "_outputHash": "Output state hash",
          "_scAddr": "Secret contract address",
          "_sig": "Worker's signature",
          "_taskId": "Unique taskId"
        }
      },
      "countSecretContracts()": {
        "return": "Number of deployed secret contracts"
      },
      "createDeploymentTaskRecord(bytes32,uint64,uint64,uint256,uint256)": {
        "params": {
          "_firstBlockNumber": "Locally-computed first block number of epoch",
          "_gasLimit": "ENG gas limit",
          "_gasPx": "ENG gas price in grains format (10 ** 8)",
          "_inputsHash": "Hash of encrypted fn sig, encrypted ABI-encoded args, and predeployed bytecode hash",
          "_nonce": "Locally-computed nonce value for this deployment"
        }
      },
      "createTaskRecord(bytes32,uint64,uint64,uint256)": {
        "params": {
          "_firstBlockNumber": "Locally-computed first block number of epoch",
          "_gasLimit": "ENG gas limit",
          "_gasPx": "ENG gas price in grains format (10 ** 8)",
          "_inputsHash": "Hash of encrypted fn sig, encrypted ABI-encoded args, and contract address"
        }
      },
      "deploySecretContract(uint64,address,bytes32[4],bytes,bytes)": {
        "params": {
          "_bytes32s": "[taskId, preCodeHash, codeHash, initStateDeltaHash]",
          "_gasUsed": "Gas used for task",
          "_optionalEthereumContractAddress": "Initial state delta hash as a result of the contract's constructor",
          "_optionalEthereumData": "Initial state delta hash as a result of the contract's constructor",
          "_sig": "Worker's signature for deployment"
        }
      },
      "deploySecretContractFailure(bytes32,bytes32,uint64,bytes)": {
        "params": {
          "_codeHash": "Deployed bytecode hash",
          "_gasUsed": "Gas used for task",
          "_sig": "Worker's signature for deployment",
          "_taskId": "Task ID of corresponding deployment task (taskId == scAddr)"
        }
      },
      "deposit(address,uint256)": {
        "params": {
          "_amount": "The amount of ENG, in grains format (10 ** 8), to deposit",
          "_custodian": "The worker's ETH address"
        }
      },
      "getActiveWorkers(uint256)": {
        "params": {
          "_blockNumber": "Block number"
        }
      },
      "getAllSecretContractAddresses()": {
        "return": "Array of secret contract addresses"
      },
      "getEpochSize()": {
        "return": "Epoch size"
      },
      "getFirstBlockNumber(uint256)": {
        "params": {
          "_blockNumber": "Block number"
        },
        "return": "Block number"
      },
      "getIsvSvn()": {
        "return": "isvSvn"
      },
      "getMrSigner()": {
        "return": "mrSigner"
      },
      "getReport(address)": {
        "params": {
          "_custodian": "The worker's custodian address"
        }
      },
      "getSecretContract(bytes32)": {
        "params": {
          "_scAddr": "Secret contract address"
        },
        "return": "SecretContract struct"
      },
      "getSecretContractAddresses(uint256,uint256)": {
        "params": {
          "_start": "Start of range",
          "_stop": "End of range"
        },
        "return": "Subset of deployed secret contract addresses"
      },
      "getSigningAddress()": {
        "return": "Signing address"
      },
      "getTaskRecord(bytes32)": {
        "params": {
          "_taskId": "Unique identifier for a given task"
        },
        "return": "TaskRecord struct"
      },
      "getTaskTimeoutSize()": {
        "return": "task timeout"
      },
      "getUpdatedEnigmaContractAddress()": {
        "return": "Updated Enigma contract address"
      },
      "getUserTaskDeployments(address)": {
        "params": {
          "_sender": "Task sender's ethereum address"
        },
        "return": "Current number for task deployments for user"
      },
      "getWorker(address)": {
        "params": {
          "_worker": "Worker's ethereum address"
        },
        "return": "Worker struct"
      },
      "getWorkerFromSigningAddress(address)": {
        "params": {
          "_signer": "Worker's signing address"
        },
        "return": "Ethereum addressWorker struct"
      },
      "getWorkerGroup(uint256,bytes32)": {
        "params": {
          "_blockNumber": "Block number the task record was mined",
          "_scAddr": "Secret contract address"
        },
        "return": "Selected workers' addresses"
      },
      "getWorkerParams(uint256)": {
        "params": {
          "_blockNumber": "Block number"
        },
        "return": "Epoch's first block numberSeedArray of worker's signing addressesArray of worker's stakes"
      },
      "getWorkersParams()": {
        "return": "Array of WorkersParams structs"
      },
      "isOwner()": {
        "return": "true if `msg.sender` is the owner of the contract."
      },
      "owner()": {
        "return": "the address of the owner."
      },
      "register(address,bytes,bytes)": {
        "params": {
          "_report": "The RLP encoded report returned by the IAS",
          "_signature": "Signature",
          "_signer": "The signer address, derived from the enclave public key"
        }
      },
      "renounceOwnership()": {
        "details": "Allows the current owner to relinquish control of the contract."
      },
      "returnFeesForTask(bytes32)": {
        "params": {
          "_taskId": "Unique taskId"
        }
      },
      "setIsvSvn(bytes)": {
        "params": {
          "_isvSvn": "mrSigner"
        }
      },
      "setMrSigner(bytes)": {
        "params": {
          "_mrSigner": "mrSigner"
        }
      },
      "setWorkersParams(uint256,uint256,bytes)": {
        "params": {
          "_blockNumber": "Block number principal node is attempting to set worker params",
          "_seed": "The random integer generated by the enclave",
          "_sig": "Principal node's signature"
        }
      },
      "transferOwnership(address)": {
        "details": "Allows the current owner to transfer control of the contract to a newOwner.",
        "params": {
          "newOwner": "The address to transfer ownership to."
        }
      },
      "transferWorkerStakePostUpgrade(address,bytes)": {
        "params": {
          "_sig": "Signature",
          "_workerAddress": "Newly-registered worker address"
        }
      },
      "upgradeEnigmaContract(address)": {
        "params": {
          "_updatedEnigmaContractAddress": "Updated newly-deployed Enigma contract address"
        }
      },
      "verifyReport(bytes,bytes)": {
        "params": {
          "_data": "The report itself",
          "_signature": "The signature of the report"
        }
      },
      "withdraw(uint256)": {
        "params": {
          "_amount": "The amount of ENG, in grains format (10 ** 8), to deposit"
        }
      }
    }
  },
  "userdoc": {
    "methods": {
      "commitReceipt(uint64,address,bytes32[4],bytes,bytes)": {
        "notice": "Commit the computation task results on chain by first verifying the receipt and then the worker's signature. The task record is finalized and the worker is credited with the task fee."
      },
      "commitTaskFailure(bytes32,bytes32,bytes32,uint64,bytes)": {
        "notice": "Commit the computation task failure on chain - the task fee is transfered to the worker and the status is updated to indicate task failure."
      },
      "countSecretContracts()": {
        "notice": "Check if secret contract has been deployed"
      },
      "createDeploymentTaskRecord(bytes32,uint64,uint64,uint256,uint256)": {
        "notice": "Create task record for contract deployment. This is necessary for transferring task fee from sender to contract, generating the unique taskId, saving the block number when the record was mined, and incrementing the user's task deployment counter nonce. We revert the process if the locally-generated nonce value does not match the on-chain-computed nonce since this indicates that the secret contract address the user has generated is invalid."
      },
      "createTaskRecord(bytes32,uint64,uint64,uint256)": {
        "notice": "Create task record for task for regular tasks. This is necessary for transferring task fee from sender to contract, generating the unique taskId, saving the block number when the record was mined, and incrementing the user's task deployment counter nonce."
      },
      "deploySecretContract(uint64,address,bytes32[4],bytes,bytes)": {
        "notice": "Deploy secret contract from user, called by the worker."
      },
      "deploySecretContractFailure(bytes32,bytes32,uint64,bytes)": {
        "notice": "Deploy secret contract from user, called by the worker."
      },
      "deposit(address,uint256)": {
        "notice": "Deposits ENG stake into contract from worker. Worker must be registered to do so."
      },
      "getActiveWorkers(uint256)": {
        "notice": "Get active workers before a certain block number"
      },
      "getAllSecretContractAddresses()": {
        "notice": "Get all secret contract addresses"
      },
      "getEpochSize()": {
        "notice": "Get the epoch block size"
      },
      "getFirstBlockNumber(uint256)": {
        "notice": "Get the first block number of an epoch that a given block number belongs to"
      },
      "getIsvSvn()": {
        "notice": "Get isvSvn"
      },
      "getMrSigner()": {
        "notice": "Get mrSigner"
      },
      "getReport(address)": {
        "notice": "The RLP encoded report returned by the IAS server"
      },
      "getSecretContract(bytes32)": {
        "notice": "Get a SecretContract struct given a particular secret contract address"
      },
      "getSecretContractAddresses(uint256,uint256)": {
        "notice": "Get deployed secret contract addresses within a range"
      },
      "getSigningAddress()": {
        "notice": "Get signing address of calling worker"
      },
      "getTaskRecord(bytes32)": {
        "notice": "Get a TaskRecord struct given a particular task's ID"
      },
      "getTaskTimeoutSize()": {
        "notice": "Get the task timeout size"
      },
      "getUpdatedEnigmaContractAddress()": {
        "notice": "Get updated Enigma contract address"
      },
      "getUserTaskDeployments(address)": {
        "notice": "Get the current number/index (used as unique nonce value) of task deployments for a given user user"
      },
      "getWorker(address)": {
        "notice": "Get Worker struct from a given worker's ethereum address"
      },
      "getWorkerFromSigningAddress(address)": {
        "notice": "Get Worker struct from a given worker's signing address"
      },
      "getWorkerGroup(uint256,bytes32)": {
        "notice": "Select a group of workers for the computation task given the block number of the task record (implies the epoch) and the secret contract address."
      },
      "getWorkerParams(uint256)": {
        "notice": "Get worker params for an epoch given a particular block number"
      },
      "getWorkersParams()": {
        "notice": "Get epoch-based history of worker params information"
      },
      "login()": {
        "notice": "Login worker. Worker must be registered to do so, and must be logged in at start of epoch to be part of worker selection process."
      },
      "logout()": {
        "notice": "Logout worker. Worker must be logged in to do so."
      },
      "register(address,bytes,bytes)": {
        "notice": "Registers a new worker or change the signer parameters of an existing worker. This should be called by every worker (and the principal) node in order to receive tasks."
      },
      "renounceOwnership()": {
        "notice": "Renouncing to ownership will leave the contract without an owner. It will not be possible to call the functions with the `onlyOwner` modifier anymore."
      },
      "returnFeesForTask(bytes32)": {
        "notice": "Return the task fee to the task creator when too many blocks have elapsed without task resolution."
      },
      "setIsvSvn(bytes)": {
        "notice": "Set isvSvn"
      },
      "setMrSigner(bytes)": {
        "notice": "Set mrSigner"
      },
      "setWorkersParams(uint256,uint256,bytes)": {
        "notice": "Reparameterizing workers with a new seed This should be called for each epoch by the Principal node"
      },
      "transferWorkerStakePostUpgrade(address,bytes)": {
        "notice": "Transfer worker stake from old contract to new contract upon registration"
      },
      "upgradeEnigmaContract(address)": {
        "notice": "Upgrade Enigma Contract"
      },
      "verifyReport(bytes,bytes)": {
        "notice": "This verifies an IAS report with hard coded modulus and exponent of Intel's certificate."
      },
      "withdraw(uint256)": {
        "notice": "Withdraws ENG stake from contract back to worker. Worker must be registered to do so."
      }
    }
  }
}