{
  "contractName": "Enigma",
  "abi": [
    {
      "constant": true,
      "inputs": [],
      "name": "getAllSecretContractAddresses",
      "outputs": [
        {
          "name": "",
          "type": "bytes32[]"
        }
      ],
      "payable": false,
      "stateMutability": "view",
      "type": "function"
    },
    {
      "constant": true,
      "inputs": [],
      "name": "getWorkersParams",
      "outputs": [
        {
          "components": [
            {
              "name": "firstBlockNumber",
              "type": "uint256"
            },
            {
              "name": "workers",
              "type": "address[]"
            },
            {
              "name": "stakes",
              "type": "uint256[]"
            },
            {
              "name": "seed",
              "type": "uint256"
            }
          ],
          "name": "",
          "type": "tuple[5]"
        }
      ],
      "payable": false,
      "stateMutability": "view",
      "type": "function"
    },
    {
      "constant": true,
      "inputs": [
        {
          "name": "_scAddr",
          "type": "bytes32"
        }
      ],
      "name": "getSecretContract",
      "outputs": [
        {
          "components": [
            {
              "name": "owner",
              "type": "address"
            },
            {
              "name": "preCodeHash",
              "type": "bytes32"
            },
            {
              "name": "codeHash",
              "type": "bytes32"
            },
            {
              "name": "stateDeltaHashes",
              "type": "bytes32[]"
            },
            {
              "name": "status",
              "type": "uint8"
            }
          ],
          "name": "",
          "type": "tuple"
        }
      ],
      "payable": false,
      "stateMutability": "view",
      "type": "function"
    },
    {
      "constant": true,
      "inputs": [
        {
          "name": "_taskId",
          "type": "bytes32"
        }
      ],
      "name": "getTaskRecord",
      "outputs": [
        {
          "components": [
            {
              "name": "sender",
              "type": "address"
            },
            {
              "name": "inputsHash",
              "type": "bytes32"
            },
            {
              "name": "outputHash",
              "type": "bytes32"
            },
            {
              "name": "gasLimit",
              "type": "uint64"
            },
            {
              "name": "gasPx",
              "type": "uint64"
            },
            {
              "name": "blockNumber",
              "type": "uint256"
            },
            {
              "name": "status",
              "type": "uint8"
            },
            {
              "name": "proof",
              "type": "bytes"
            }
          ],
          "name": "",
          "type": "tuple"
        }
      ],
      "payable": false,
      "stateMutability": "view",
      "type": "function"
    },
    {
      "constant": true,
      "inputs": [
        {
          "name": "_signer",
          "type": "address"
        }
      ],
      "name": "getWorkerFromSigningAddress",
      "outputs": [
        {
          "name": "",
          "type": "address"
        },
        {
          "components": [
            {
              "name": "signer",
              "type": "address"
            },
            {
              "name": "status",
              "type": "uint8"
            },
            {
              "name": "report",
              "type": "bytes"
            },
            {
              "name": "balance",
              "type": "uint256"
            },
            {
              "components": [
                {
                  "name": "workerEventType",
                  "type": "uint8"
                },
                {
                  "name": "blockNumber",
                  "type": "uint256"
                },
                {
                  "name": "balance",
                  "type": "uint256"
                }
              ],
              "name": "workerLogs",
              "type": "tuple[]"
            }
          ],
          "name": "",
          "type": "tuple"
        }
      ],
      "payable": false,
      "stateMutability": "view",
      "type": "function"
    },
    {
      "constant": true,
      "inputs": [
        {
          "name": "_worker",
          "type": "address"
        }
      ],
      "name": "getWorker",
      "outputs": [
        {
          "components": [
            {
              "name": "signer",
              "type": "address"
            },
            {
              "name": "status",
              "type": "uint8"
            },
            {
              "name": "report",
              "type": "bytes"
            },
            {
              "name": "balance",
              "type": "uint256"
            },
            {
              "components": [
                {
                  "name": "workerEventType",
                  "type": "uint8"
                },
                {
                  "name": "blockNumber",
                  "type": "uint256"
                },
                {
                  "name": "balance",
                  "type": "uint256"
                }
              ],
              "name": "workerLogs",
              "type": "tuple[]"
            }
          ],
          "name": "",
          "type": "tuple"
        }
      ],
      "payable": false,
      "stateMutability": "view",
      "type": "function"
    },
    {
      "constant": true,
      "inputs": [],
      "name": "getSigningAddress",
      "outputs": [
        {
          "name": "",
          "type": "address"
        }
      ],
      "payable": false,
      "stateMutability": "view",
      "type": "function"
    },
    {
      "constant": true,
      "inputs": [],
      "name": "getEpochSize",
      "outputs": [
        {
          "name": "",
          "type": "uint256"
        }
      ],
      "payable": false,
      "stateMutability": "view",
      "type": "function"
    },
    {
      "constant": true,
      "inputs": [
        {
          "name": "_sender",
          "type": "address"
        }
      ],
      "name": "getUserTaskDeployments",
      "outputs": [
        {
          "name": "",
          "type": "uint256"
        }
      ],
      "payable": false,
      "stateMutability": "view",
      "type": "function"
    },
    {
      "inputs": [
        {
          "name": "_tokenAddress",
          "type": "address"
        },
        {
          "name": "_principal",
          "type": "address"
        },
        {
          "name": "_epochSize",
          "type": "uint256"
        }
      ],
      "payable": false,
      "stateMutability": "nonpayable",
      "type": "constructor"
    },
    {
      "anonymous": false,
      "inputs": [
        {
          "indexed": false,
          "name": "custodian",
          "type": "address"
        },
        {
          "indexed": false,
          "name": "signer",
          "type": "address"
        }
      ],
      "name": "Registered",
      "type": "event"
    },
    {
      "anonymous": false,
      "inputs": [
        {
          "indexed": false,
          "name": "seed",
          "type": "uint256"
        },
        {
          "indexed": false,
          "name": "firstBlockNumber",
          "type": "uint256"
        },
        {
          "indexed": false,
          "name": "inclusionBlockNumber",
          "type": "uint256"
        },
        {
          "indexed": false,
          "name": "workers",
          "type": "address[]"
        },
        {
          "indexed": false,
          "name": "stakes",
          "type": "uint256[]"
        },
        {
          "indexed": false,
          "name": "nonce",
          "type": "uint256"
        }
      ],
      "name": "WorkersParameterized",
      "type": "event"
    },
    {
      "anonymous": false,
      "inputs": [
        {
          "indexed": false,
          "name": "taskId",
          "type": "bytes32"
        },
        {
          "indexed": false,
          "name": "inputsHash",
          "type": "bytes32"
        },
        {
          "indexed": false,
          "name": "gasLimit",
          "type": "uint64"
        },
        {
          "indexed": false,
          "name": "gasPx",
          "type": "uint64"
        },
        {
          "indexed": false,
          "name": "sender",
          "type": "address"
        },
        {
          "indexed": false,
          "name": "blockNumber",
          "type": "uint256"
        }
      ],
      "name": "TaskRecordCreated",
      "type": "event"
    },
    {
      "anonymous": false,
      "inputs": [
        {
          "indexed": false,
          "name": "taskId",
          "type": "bytes32"
        },
        {
          "indexed": false,
          "name": "stateDeltaHash",
          "type": "bytes32"
        },
        {
          "indexed": false,
          "name": "outputHash",
          "type": "bytes32"
        },
        {
          "indexed": false,
          "name": "scAddr",
          "type": "bytes32"
        },
        {
          "indexed": false,
          "name": "gasUsed",
          "type": "uint256"
        },
        {
          "indexed": false,
          "name": "deltaHashIndex",
          "type": "uint256"
        },
        {
          "indexed": false,
          "name": "optionalEthereumData",
          "type": "bytes"
        },
        {
          "indexed": false,
          "name": "optionalEthereumContractAddress",
          "type": "address"
        },
        {
          "indexed": false,
          "name": "workerAddress",
          "type": "address"
        },
        {
          "indexed": false,
          "name": "sig",
          "type": "bytes"
        }
      ],
      "name": "ReceiptVerified",
      "type": "event"
    },
    {
      "anonymous": false,
      "inputs": [
        {
          "indexed": false,
          "name": "taskId",
          "type": "bytes32"
        },
        {
          "indexed": false,
          "name": "sig",
          "type": "bytes"
        }
      ],
      "name": "ReceiptFailed",
      "type": "event"
    },
    {
      "anonymous": false,
      "inputs": [
        {
          "indexed": false,
          "name": "taskId",
          "type": "bytes32"
        },
        {
          "indexed": false,
          "name": "sig",
          "type": "bytes"
        }
      ],
      "name": "ReceiptFailedETH",
      "type": "event"
    },
    {
      "anonymous": false,
      "inputs": [
        {
          "indexed": false,
          "name": "taskId",
          "type": "bytes32"
        }
      ],
      "name": "TaskFeeReturned",
      "type": "event"
    },
    {
      "anonymous": false,
      "inputs": [
        {
          "indexed": false,
          "name": "from",
          "type": "address"
        },
        {
          "indexed": false,
          "name": "value",
          "type": "uint256"
        }
      ],
      "name": "DepositSuccessful",
      "type": "event"
    },
    {
      "anonymous": false,
      "inputs": [
        {
          "indexed": false,
          "name": "to",
          "type": "address"
        },
        {
          "indexed": false,
          "name": "value",
          "type": "uint256"
        }
      ],
      "name": "WithdrawSuccessful",
      "type": "event"
    },
    {
      "anonymous": false,
      "inputs": [
        {
          "indexed": false,
          "name": "scAddr",
          "type": "bytes32"
        },
        {
          "indexed": false,
          "name": "codeHash",
          "type": "bytes32"
        },
        {
          "indexed": false,
          "name": "initStateDeltaHash",
          "type": "bytes32"
        }
      ],
      "name": "SecretContractDeployed",
      "type": "event"
    },
    {
      "constant": false,
      "inputs": [
        {
          "name": "_signer",
          "type": "address"
        },
        {
          "name": "_report",
          "type": "bytes"
        },
        {
          "name": "_signature",
          "type": "bytes"
        }
      ],
      "name": "register",
      "outputs": [],
      "payable": false,
      "stateMutability": "nonpayable",
      "type": "function"
    },
    {
      "constant": false,
      "inputs": [
        {
          "name": "_custodian",
          "type": "address"
        },
        {
          "name": "_amount",
          "type": "uint256"
        }
      ],
      "name": "deposit",
      "outputs": [],
      "payable": false,
      "stateMutability": "nonpayable",
      "type": "function"
    },
    {
      "constant": false,
      "inputs": [
        {
          "name": "_amount",
          "type": "uint256"
        }
      ],
      "name": "withdraw",
      "outputs": [],
      "payable": false,
      "stateMutability": "nonpayable",
      "type": "function"
    },
    {
      "constant": false,
      "inputs": [],
      "name": "login",
      "outputs": [],
      "payable": false,
      "stateMutability": "nonpayable",
      "type": "function"
    },
    {
      "constant": false,
      "inputs": [],
      "name": "logout",
      "outputs": [],
      "payable": false,
      "stateMutability": "nonpayable",
      "type": "function"
    },
    {
      "constant": false,
      "inputs": [
        {
          "name": "_taskId",
          "type": "bytes32"
        },
        {
          "name": "_codeHash",
          "type": "bytes32"
        },
        {
          "name": "_gasUsed",
          "type": "uint64"
        },
        {
          "name": "_sig",
          "type": "bytes"
        }
      ],
      "name": "deploySecretContractFailure",
      "outputs": [],
      "payable": false,
      "stateMutability": "nonpayable",
      "type": "function"
    },
    {
      "constant": false,
      "inputs": [
        {
          "name": "_taskId",
          "type": "bytes32"
        },
        {
          "name": "_preCodeHash",
          "type": "bytes32"
        },
        {
          "name": "_codeHash",
          "type": "bytes32"
        },
        {
          "name": "_initStateDeltaHash",
          "type": "bytes32"
        },
        {
          "name": "_optionalEthereumData",
          "type": "bytes"
        },
        {
          "name": "_optionalEthereumContractAddress",
          "type": "address"
        },
        {
          "name": "_gasUsed",
          "type": "uint64"
        },
        {
          "name": "_sig",
          "type": "bytes"
        }
      ],
      "name": "deploySecretContract",
      "outputs": [],
      "payable": false,
      "stateMutability": "nonpayable",
      "type": "function"
    },
    {
      "constant": true,
      "inputs": [],
      "name": "countSecretContracts",
      "outputs": [
        {
          "name": "",
          "type": "uint256"
        }
      ],
      "payable": false,
      "stateMutability": "view",
      "type": "function"
    },
    {
      "constant": true,
      "inputs": [
        {
          "name": "_start",
          "type": "uint256"
        },
        {
          "name": "_stop",
          "type": "uint256"
        }
      ],
      "name": "getSecretContractAddresses",
      "outputs": [
        {
          "name": "",
          "type": "bytes32[]"
        }
      ],
      "payable": false,
      "stateMutability": "view",
      "type": "function"
    },
    {
      "constant": false,
      "inputs": [
        {
          "name": "_inputsHash",
          "type": "bytes32"
        },
        {
          "name": "_gasLimit",
          "type": "uint64"
        },
        {
          "name": "_gasPx",
          "type": "uint64"
        },
        {
          "name": "_firstBlockNumber",
          "type": "uint256"
        },
        {
          "name": "_nonce",
          "type": "uint256"
        }
      ],
      "name": "createDeploymentTaskRecord",
      "outputs": [],
      "payable": false,
      "stateMutability": "nonpayable",
      "type": "function"
    },
    {
      "constant": false,
      "inputs": [
        {
          "name": "_inputsHash",
          "type": "bytes32"
        },
        {
          "name": "_gasLimit",
          "type": "uint64"
        },
        {
          "name": "_gasPx",
          "type": "uint64"
        },
        {
          "name": "_firstBlockNumber",
          "type": "uint256"
        }
      ],
      "name": "createTaskRecord",
      "outputs": [],
      "payable": false,
      "stateMutability": "nonpayable",
      "type": "function"
    },
    {
      "constant": false,
      "inputs": [
        {
          "name": "_scAddr",
          "type": "bytes32"
        },
        {
          "name": "_taskId",
          "type": "bytes32"
        },
        {
          "name": "_stateDeltaHash",
          "type": "bytes32"
        },
        {
          "name": "_outputHash",
          "type": "bytes32"
        },
        {
          "name": "_optionalEthereumData",
          "type": "bytes"
        },
        {
          "name": "_optionalEthereumContractAddress",
          "type": "address"
        },
        {
          "name": "_gasUsed",
          "type": "uint64"
        },
        {
          "name": "_sig",
          "type": "bytes"
        }
      ],
      "name": "commitReceipt",
      "outputs": [],
      "payable": false,
      "stateMutability": "nonpayable",
      "type": "function"
    },
    {
      "constant": false,
      "inputs": [
        {
          "name": "_scAddr",
          "type": "bytes32"
        },
        {
          "name": "_taskId",
          "type": "bytes32"
        },
        {
          "name": "_outputHash",
          "type": "bytes32"
        },
        {
          "name": "_gasUsed",
          "type": "uint64"
        },
        {
          "name": "_sig",
          "type": "bytes"
        }
      ],
      "name": "commitTaskFailure",
      "outputs": [],
      "payable": false,
      "stateMutability": "nonpayable",
      "type": "function"
    },
    {
      "constant": false,
      "inputs": [
        {
          "name": "_taskId",
          "type": "bytes32"
        }
      ],
      "name": "returnFeesForTask",
      "outputs": [],
      "payable": false,
      "stateMutability": "nonpayable",
      "type": "function"
    },
    {
      "constant": false,
      "inputs": [
        {
          "name": "_blockNumber",
          "type": "uint256"
        },
        {
          "name": "_seed",
          "type": "uint256"
        },
        {
          "name": "_sig",
          "type": "bytes"
        }
      ],
      "name": "setWorkersParams",
      "outputs": [],
      "payable": false,
      "stateMutability": "nonpayable",
      "type": "function"
    },
    {
      "constant": true,
      "inputs": [
        {
          "name": "_blockNumber",
          "type": "uint256"
        }
      ],
      "name": "getActiveWorkers",
      "outputs": [
        {
          "name": "",
          "type": "address[]"
        },
        {
          "name": "",
          "type": "uint256[]"
        }
      ],
      "payable": false,
      "stateMutability": "view",
      "type": "function"
    },
    {
      "constant": true,
      "inputs": [
        {
          "name": "_blockNumber",
          "type": "uint256"
        }
      ],
      "name": "getFirstBlockNumber",
      "outputs": [
        {
          "name": "",
          "type": "uint256"
        }
      ],
      "payable": false,
      "stateMutability": "view",
      "type": "function"
    },
    {
      "constant": true,
      "inputs": [
        {
          "name": "_blockNumber",
          "type": "uint256"
        }
      ],
      "name": "getWorkerParams",
      "outputs": [
        {
          "name": "",
          "type": "uint256"
        },
        {
          "name": "",
          "type": "uint256"
        },
        {
          "name": "",
          "type": "address[]"
        },
        {
          "name": "",
          "type": "uint256[]"
        }
      ],
      "payable": false,
      "stateMutability": "view",
      "type": "function"
    },
    {
      "constant": true,
      "inputs": [
        {
          "name": "_blockNumber",
          "type": "uint256"
        },
        {
          "name": "_scAddr",
          "type": "bytes32"
        }
      ],
      "name": "getWorkerGroup",
      "outputs": [
        {
          "name": "",
          "type": "address[]"
        }
      ],
      "payable": false,
      "stateMutability": "view",
      "type": "function"
    },
    {
      "constant": true,
      "inputs": [
        {
          "name": "_custodian",
          "type": "address"
        }
      ],
      "name": "getReport",
      "outputs": [
        {
          "name": "",
          "type": "address"
        },
        {
          "name": "",
          "type": "bytes"
        }
      ],
      "payable": false,
      "stateMutability": "view",
      "type": "function"
    },
    {
      "constant": true,
      "inputs": [
        {
          "name": "_data",
          "type": "bytes"
        },
        {
          "name": "_signature",
          "type": "bytes"
        }
      ],
      "name": "verifyReport",
      "outputs": [
        {
          "name": "",
          "type": "uint256"
        }
      ],
      "payable": false,
      "stateMutability": "view",
      "type": "function"
    }
  ],
  "bytecode": "0x60806040523480156200001157600080fd5b506040516060806200465d83398101806040526200003391908101906200009b565b600080546001600160a01b039485166001600160a01b031991821617909155600191825560c86002556003805493909416921691909117909155601e819055601f5562000129565b8051620000888162000104565b92915050565b805162000088816200011e565b600080600060608486031215620000b157600080fd5b6000620000bf86866200007b565b9350506020620000d2868287016200007b565b9250506040620000e5868287016200008e565b9150509250925092565b60006001600160a01b03821662000088565b90565b6200010f81620000ef565b81146200011b57600080fd5b50565b6200010f8162000101565b61452480620001396000396000f3fe608060405234801561001057600080fd5b50600436106101da5760003560e01c80639836ca3111610104578063c011b1c3116100a2578063d855a57911610071578063d855a57914610436578063df4da4611461044b578063ee6dcef914610453578063f9a9b7ae14610466576101da565b8063c011b1c3146103dd578063c652b919146103fd578063ca2af5f214610410578063cbbc061d14610423576101da565b8063a3bdae3e116100de578063a3bdae3e1461038e578063b34e97e8146103af578063b5c14992146103b7578063ba252688146103ca576101da565b80639836ca3114610337578063a0c399821461035a578063a153ec601461037b576101da565b806350946a9f1161017c5780637624281e1161014b5780637624281e146102d1578063786cd4d7146102f15780638e055b8b146103045780638ed0573714610317576101da565b806350946a9f1461027f578063550baa2f1461029257806370266a47146102a757806375bbf75b146102bc576101da565b80632e1a7d4d116101b85780632e1a7d4d14610233578063365a2cb31461024657806347e7ef241461025957806348cc37611461026c576101da565b806316f9a2a4146101df5780631d40ff0b146102095780631f3c99c314610229575b600080fd5b6101f26101ed366004613109565b610479565b604051610200929190613ea3565b60405180910390f35b61021c61021736600461345f565b610513565b6040516102009190613e92565b6102316105b2565b005b610231610241366004613109565b61080b565b610231610254366004613127565b610b52565b610231610267366004613014565b610dfe565b61023161027a366004613127565b61101f565b61023161028d366004613501565b61128d565b61029a6114e7565b6040516102009190613ec8565b6102af611542565b6040516102009190613ed9565b6102c461165c565b60405161020091906142fb565b6102e46102df366004613109565b6116ee565b6040516102009190613fbf565b6102316102ff366004612f99565b6117b5565b61029a61031236600461345f565b611879565b61032a610325366004613109565b61190f565b60405161020091906142b9565b61034a610345366004613109565b611a4f565b6040516102009493929190614309565b61036d610368366004612f22565b611af2565b604051610200929190613e72565b610231610389366004613291565b611d35565b6103a161039c366004612f22565b611fd4565b604051610200929190613e52565b610231612256565b6102c46103c53660046133c6565b6124c2565b6102316103d8366004613309565b612551565b6103f06103eb366004612f22565b612594565b60405161020091906142ca565b61023161040b36600461335e565b612745565b61023161041e366004613205565b61278a565b6102c4610431366004613109565b612a2c565b61043e612abb565b6040516102009190613e44565b6102c4612ad7565b610231610461366004613109565b612add565b6102c4610474366004612f22565b612b5e565b60608073__PrincipalImpl_________________________63eacba6536000856040518363ffffffff1660e01b81526004016104b6929190614073565b60006040518083038186803b1580156104ce57600080fd5b505af41580156104e2573d6000803e3d6000fd5b505050506040513d6000823e601f3d908101601f1916820160405261050a9190810190613078565b91509150915091565b604051600160e11b635deadfbd02815260609073__WorkersImpl___________________________9063bbd5bf7a906105559060009087908790600401614264565b60006040518083038186803b15801561056d57600080fd5b505af4158015610581573d6000803e3d6000fd5b505050506040513d6000823e601f3d908101601f191682016040526105a99190810190613044565b90505b92915050565b336105bb612b79565b6001600160a01b038281166000908152601a6020908152604091829020825160a0810190935280549384168352919290830190600160a01b900460ff16600281111561060357fe5b600281111561060e57fe5b8152602001600182018054600181600116156101000203166002900480601f0160208091040260200160405190810160405280929190818152602001828054600181600116156101000203166002900480156106ab5780601f10610680576101008083540402835291602001916106ab565b820191906000526020600020905b81548152906001019060200180831161068e57829003601f168201915b505050505081526020016002820154815260200160038201805480602002602001604051908101604052809291908181526020016000905b8282101561075657838290600052602060002090600302016040518060600160405290816000820160009054906101000a900460ff16600381111561072457fe5b600381111561072f57fe5b815260200160018201548152602001600282015481525050815260200190600101906106e3565b505050915250909150600190508160200151600281111561077357fe5b1461079c57604051600160e51b62461bcd02815260040161079390613f7f565b60405180910390fd5b604051600160e01b6349e44f4902815273__WorkersImpl___________________________906349e44f49906107d790600090600401613fd0565b60006040518083038186803b1580156107ef57600080fd5b505af4158015610803573d6000803e3d6000fd5b505050505050565b33610814612b79565b6001600160a01b038281166000908152601a6020908152604091829020825160a0810190935280549384168352919290830190600160a01b900460ff16600281111561085c57fe5b600281111561086757fe5b8152602001600182018054600181600116156101000203166002900480601f0160208091040260200160405190810160405280929190818152602001828054600181600116156101000203166002900480156109045780601f106108d957610100808354040283529160200191610904565b820191906000526020600020905b8154815290600101906020018083116108e757829003601f168201915b505050505081526020016002820154815260200160038201805480602002602001604051908101604052809291908181526020016000905b828210156109af57838290600052602060002090600302016040518060600160405290816000820160009054906101000a900460ff16600381111561097d57fe5b600381111561098857fe5b8152602001600182015481526020016002820154815250508152602001906001019061093c565b50505091525090915060029050816020015160028111156109cc57fe5b146109ec57604051600160e51b62461bcd02815260040161079390613faf565b6109f4612ba9565b604051600160e21b6328de336102815273__WorkersImpl___________________________9063a378cd8490610a3090859043906004016142db565b60606040518083038186803b158015610a4857600080fd5b505af4158015610a5c573d6000803e3d6000fd5b505050506040513d601f19601f82011682018060405250610a809190810190613423565b9050600281516003811115610a9157fe5b14610ab157604051600160e51b62461bcd02815260040161079390613f2f565b8060200151610abf43612a2c565b11610adf57604051600160e51b62461bcd02815260040161079390613f6f565b604051600160e21b632fdb7d1902815273__WorkersImpl___________________________9063bf6df46490610b1c906000908890600401614073565b60006040518083038186803b158015610b3457600080fd5b505af4158015610b48573d6000803e3d6000fd5b5050505050505050565b33610b5b612b79565b6001600160a01b038281166000908152601a6020908152604091829020825160a0810190935280549384168352919290830190600160a01b900460ff166002811115610ba357fe5b6002811115610bae57fe5b8152602001600182018054600181600116156101000203166002900480601f016020809104026020016040519081016040528092919081815260200182805460018160011615610100020316600290048015610c4b5780601f10610c2057610100808354040283529160200191610c4b565b820191906000526020600020905b815481529060010190602001808311610c2e57829003601f168201915b505050505081526020016002820154815260200160038201805480602002602001604051908101604052809291908181526020016000905b82821015610cf657838290600052602060002090600302016040518060600160405290816000820160009054906101000a900460ff166003811115610cc457fe5b6003811115610ccf57fe5b81526020016001820154815260200160028201548152505081526020019060010190610c83565b5050509152509091506001905081602001516002811115610d1357fe5b14610d3357604051600160e51b62461bcd02815260040161079390613f7f565b8960016000828152601c602052604090206004015460ff166001811115610d5657fe5b14610d7657604051600160e51b62461bcd02815260040161079390613f3f565b604051600160e01b632def3b6902815273__TaskImpl______________________________90632def3b6990610dc1906000908f908f908f908f908f908f908f908f9060040161408e565b60006040518083038186803b158015610dd957600080fd5b505af4158015610ded573d6000803e3d6000fd5b505050505050505050505050505050565b81610e07612b79565b6001600160a01b038281166000908152601a6020908152604091829020825160a0810190935280549384168352919290830190600160a01b900460ff166002811115610e4f57fe5b6002811115610e5a57fe5b8152602001600182018054600181600116156101000203166002900480601f016020809104026020016040519081016040528092919081815260200182805460018160011615610100020316600290048015610ef75780601f10610ecc57610100808354040283529160200191610ef7565b820191906000526020600020905b815481529060010190602001808311610eda57829003601f168201915b505050505081526020016002820154815260200160038201805480602002602001604051908101604052809291908181526020016000905b82821015610fa257838290600052602060002090600302016040518060600160405290816000820160009054906101000a900460ff166003811115610f7057fe5b6003811115610f7b57fe5b81526020016001820154815260200160028201548152505081526020019060010190610f2f565b5050509152509091506000905081602001516002811115610fbf57fe5b1415610fe057604051600160e51b62461bcd02815260040161079390613f8f565b604051600160e21b630e80483102815273__WorkersImpl___________________________90633a0120c490610b1c906000908890889060040161404b565b33611028612b79565b6001600160a01b038281166000908152601a6020908152604091829020825160a0810190935280549384168352919290830190600160a01b900460ff16600281111561107057fe5b600281111561107b57fe5b8152602001600182018054600181600116156101000203166002900480601f0160208091040260200160405190810160405280929190818152602001828054600181600116156101000203166002900480156111185780601f106110ed57610100808354040283529160200191611118565b820191906000526020600020905b8154815290600101906020018083116110fb57829003601f168201915b505050505081526020016002820154815260200160038201805480602002602001604051908101604052809291908181526020016000905b828210156111c357838290600052602060002090600302016040518060600160405290816000820160009054906101000a900460ff16600381111561119157fe5b600381111561119c57fe5b81526020016001820154815260200160028201548152505081526020019060010190611150565b50505091525090915060019050816020015160028111156111e057fe5b1461120057604051600160e51b62461bcd02815260040161079390613f7f565b89600080828152601c602052604090206004015460ff16600181111561122257fe5b1461124257604051600160e51b62461bcd02815260040161079390613f9f565b604051600160e01b63b36d042b02815273__TaskImpl______________________________9063b36d042b90610dc1906000908f908f908f908f908f908f908f908f9060040161408e565b33611296612b79565b6001600160a01b038281166000908152601a6020908152604091829020825160a0810190935280549384168352919290830190600160a01b900460ff1660028111156112de57fe5b60028111156112e957fe5b8152602001600182018054600181600116156101000203166002900480601f0160208091040260200160405190810160405280929190818152602001828054600181600116156101000203166002900480156113865780601f1061135b57610100808354040283529160200191611386565b820191906000526020600020905b81548152906001019060200180831161136957829003601f168201915b505050505081526020016002820154815260200160038201805480602002602001604051908101604052809291908181526020016000905b8282101561143157838290600052602060002090600302016040518060600160405290816000820160009054906101000a900460ff1660038111156113ff57fe5b600381111561140a57fe5b815260200160018201548152602001600282015481525050815260200190600101906113be565b505050915250909150600090508160200151600281111561144e57fe5b141561146f57604051600160e51b62461bcd02815260040161079390613f8f565b604051600160e31b63184e876302815273__PrincipalImpl_________________________9063c2743b18906114b09060009089908990899060040161427f565b60006040518083038186803b1580156114c857600080fd5b505af41580156114dc573d6000803e3d6000fd5b505050505050505050565b6060600060190180548060200260200160405190810160405280929190818152602001828054801561153857602002820191906000526020600020905b815481526020019060010190808311611524575b5050505050905090565b61154a612bcb565b6040805160a08101909152600460056000835b828210156116535783826004020160405180608001604052908160008201548152602001600182018054806020026020016040519081016040528092919081815260200182805480156115d957602002820191906000526020600020905b81546001600160a01b031681526001909101906020018083116115bb575b505050505081526020016002820180548060200260200160405190810160405280929190818152602001828054801561163157602002820191906000526020600020905b81548152602001906001019080831161161d575b505050505081526020016003820154815250508152602001906001019061155d565b50505050905090565b604051600160e11b6302b519c302815260009073__SecretContractImpl____________________9063056a338690611699908490600401613fd0565b60206040518083038186803b1580156116b157600080fd5b505af41580156116c5573d6000803e3d6000fd5b505050506040513d601f19601f820116820180604052506116e99190810190613441565b905090565b6116f6612bf9565b6000828152601c6020908152604091829020825160a08101845281546001600160a01b03168152600182015481840152600282015481850152600382018054855181860281018601909652808652919492936060860193929083018282801561177e57602002820191906000526020600020905b81548152602001906001019080831161176a575b5050509183525050600482015460209091019060ff16600181111561179f57fe5b60018111156117aa57fe5b90525090505b919050565b8260005b60185481101561183757816001600160a01b03166000601a0160008060180184815481106117e357fe5b60009182526020808320909101546001600160a01b03908116845290830193909352604090910190205416141561182f57604051600160e51b62461bcd02815260040161079390613f1f565b6001016117b9565b50604051600160e51b63063e88f102815273__WorkersImpl___________________________9063c7d11e2090610b1c90600090889088908890600401614000565b604051600160e01b63e5a2600902815260609073__SecretContractImpl____________________9063e5a26009906118bb9060009087908790600401614264565b60006040518083038186803b1580156118d357600080fd5b505af41580156118e7573d6000803e3d6000fd5b505050506040513d6000823e601f3d908101601f191682016040526105a991908101906130d5565b611917612c24565b6000828152601b602090815260409182902082516101008101845281546001600160a01b0316815260018201549281019290925260028101549282019290925260038201546001600160401b03808216606084015268010000000000000000909104166080820152600482015460a082015260058083015491929160c084019160ff909116908111156119a657fe5b60058111156119b157fe5b815260068201805460408051602060026001851615610100026000190190941693909304601f8101849004840282018401909252818152938201939291830182828015611a3f5780601f10611a1457610100808354040283529160200191611a3f565b820191906000526020600020905b815481529060010190602001808311611a2257829003601f168201915b5050505050815250509050919050565b60008060608073__WorkersImpl___________________________63198cc4cb6000876040518363ffffffff1660e01b8152600401611a8f929190614073565b60006040518083038186803b158015611aa757600080fd5b505af4158015611abb573d6000803e3d6000fd5b505050506040513d6000823e601f3d908101601f19168201604052611ae3919081019061347e565b93509350935093509193509193565b6000611afc612b79565b6000611b06612b79565b60005b601854811015611d2a5760188054601a9160009184908110611b2757fe5b60009182526020808320909101546001600160a01b039081168452838201949094526040928301909120825160a081019093528054938416835291929083019060ff600160a01b909104166002811115611b7d57fe5b6002811115611b8857fe5b8152602001600182018054600181600116156101000203166002900480601f016020809104026020016040519081016040528092919081815260200182805460018160011615610100020316600290048015611c255780601f10611bfa57610100808354040283529160200191611c25565b820191906000526020600020905b815481529060010190602001808311611c0857829003601f168201915b505050505081526020016002820154815260200160038201805480602002602001604051908101604052809291908181526020016000905b82821015611cd057838290600052602060002090600302016040518060600160405290816000820160009054906101000a900460ff166003811115611c9e57fe5b6003811115611ca957fe5b81526020016001820154815260200160028201548152505081526020019060010190611c5d565b50505050815250509150856001600160a01b031682600001516001600160a01b03161415611d22576018805482908110611d0657fe5b6000918252602090912001546001600160a01b03169250611d2a565b600101611b09565b509092509050915091565b33611d3e612b79565b6001600160a01b038281166000908152601a6020908152604091829020825160a0810190935280549384168352919290830190600160a01b900460ff166002811115611d8657fe5b6002811115611d9157fe5b8152602001600182018054600181600116156101000203166002900480601f016020809104026020016040519081016040528092919081815260200182805460018160011615610100020316600290048015611e2e5780601f10611e0357610100808354040283529160200191611e2e565b820191906000526020600020905b815481529060010190602001808311611e1157829003601f168201915b505050505081526020016002820154815260200160038201805480602002602001604051908101604052809291908181526020016000905b82821015611ed957838290600052602060002090600302016040518060600160405290816000820160009054906101000a900460ff166003811115611ea757fe5b6003811115611eb257fe5b81526020016001820154815260200160028201548152505081526020019060010190611e66565b5050509152509091506001905081602001516002811115611ef657fe5b14611f1657604051600160e51b62461bcd02815260040161079390613f7f565b85600080828152601c602052604090206004015460ff166001811115611f3857fe5b14611f5857604051600160e51b62461bcd02815260040161079390613f9f565b604051600160e21b6301c7aeeb02815273__TaskImpl______________________________9063071ebbac90611f9b906000908b908b908b908b90600401614181565b60006040518083038186803b158015611fb357600080fd5b505af4158015611fc7573d6000803e3d6000fd5b5050505050505050505050565b6000606082611fe1612b79565b6001600160a01b038281166000908152601a6020908152604091829020825160a0810190935280549384168352919290830190600160a01b900460ff16600281111561202957fe5b600281111561203457fe5b8152602001600182018054600181600116156101000203166002900480601f0160208091040260200160405190810160405280929190818152602001828054600181600116156101000203166002900480156120d15780601f106120a6576101008083540402835291602001916120d1565b820191906000526020600020905b8154815290600101906020018083116120b457829003601f168201915b505050505081526020016002820154815260200160038201805480602002602001604051908101604052809291908181526020016000905b8282101561217c57838290600052602060002090600302016040518060600160405290816000820160009054906101000a900460ff16600381111561214a57fe5b600381111561215557fe5b81526020016001820154815260200160028201548152505081526020019060010190612109565b505050915250909150600090508160200151600281111561219957fe5b14156121ba57604051600160e51b62461bcd02815260040161079390613f8f565b604051600160e01b632f68f03102815273__WorkersImpl___________________________90632f68f031906121f7906000908990600401613fde565b60006040518083038186803b15801561220f57600080fd5b505af4158015612223573d6000803e3d6000fd5b505050506040513d6000823e601f3d908101601f1916820160405261224b9190810190612f48565b935093505050915091565b3361225f612b79565b6001600160a01b038281166000908152601a6020908152604091829020825160a0810190935280549384168352919290830190600160a01b900460ff1660028111156122a757fe5b60028111156122b257fe5b8152602001600182018054600181600116156101000203166002900480601f01602080910402602001604051908101604052809291908181526020018280546001816001161561010002031660029004801561234f5780601f106123245761010080835404028352916020019161234f565b820191906000526020600020905b81548152906001019060200180831161233257829003601f168201915b505050505081526020016002820154815260200160038201805480602002602001604051908101604052809291908181526020016000905b828210156123fa57838290600052602060002090600302016040518060600160405290816000820160009054906101000a900460ff1660038111156123c857fe5b60038111156123d357fe5b81526020016001820154815260200160028201548152505081526020019060010190612387565b5050505081525050905061240d43612a2c565b61242c57604051600160e51b62461bcd02815260040161079390613f5f565b60028160200151600281111561243e57fe5b1461245e57604051600160e51b62461bcd02815260040161079390613faf565b601e546060820151101561248757604051600160e51b62461bcd02815260040161079390613f0f565b604051600160e11b6318a8dc7102815273__WorkersImpl___________________________90633151b8e2906107d790600090600401613fd0565b604051600160e31b6312c8c46d02815260009073__WorkersImpl___________________________906396462368906125019086908690600401613eea565b60206040518083038186803b15801561251957600080fd5b505af415801561252d573d6000803e3d6000fd5b505050506040513d601f19601f820116820180604052506105a99190810190613441565b604051600160e01b638c91056d02815273__TaskImpl______________________________90638c91056d90610b1c9060009088908890889088906004016141d3565b61259c612b79565b6001600160a01b038281166000908152601a6020908152604091829020825160a0810190935280549384168352919290830190600160a01b900460ff1660028111156125e457fe5b60028111156125ef57fe5b8152602001600182018054600181600116156101000203166002900480601f01602080910402602001604051908101604052809291908181526020018280546001816001161561010002031660029004801561268c5780601f106126615761010080835404028352916020019161268c565b820191906000526020600020905b81548152906001019060200180831161266f57829003601f168201915b505050505081526020016002820154815260200160038201805480602002602001604051908101604052809291908181526020016000905b8282101561273757838290600052602060002090600302016040518060600160405290816000820160009054906101000a900460ff16600381111561270557fe5b600381111561271057fe5b815260200160018201548152602001600282015481525050815260200190600101906126c4565b505050915250909392505050565b604051600160e01b6366e13f4302815273__TaskImpl______________________________906366e13f43906114b09060009089908990899089908990600401614215565b33612793612b79565b6001600160a01b038281166000908152601a6020908152604091829020825160a0810190935280549384168352919290830190600160a01b900460ff1660028111156127db57fe5b60028111156127e657fe5b8152602001600182018054600181600116156101000203166002900480601f0160208091040260200160405190810160405280929190818152602001828054600181600116156101000203166002900480156128835780601f1061285857610100808354040283529160200191612883565b820191906000526020600020905b81548152906001019060200180831161286657829003601f168201915b505050505081526020016002820154815260200160038201805480602002602001604051908101604052809291908181526020016000905b8282101561292e57838290600052602060002090600302016040518060600160405290816000820160009054906101000a900460ff1660038111156128fc57fe5b600381111561290757fe5b815260200160018201548152602001600282015481525050815260200190600101906128bb565b505050915250909150600190508160200151600281111561294b57fe5b1461296b57604051600160e51b62461bcd02815260040161079390613f7f565b8660016000828152601c602052604090206004015460ff16600181111561298e57fe5b146129ae57604051600160e51b62461bcd02815260040161079390613f3f565b604051600160e61b6289b28102815273__TaskImpl______________________________9063226ca040906129f2906000908c908c908c908c908c90600401614121565b60006040518083038186803b158015612a0a57600080fd5b505af4158015612a1e573d6000803e3d6000fd5b505050505050505050505050565b604051600160e31b6304d5c11302815260009073__WorkersImpl___________________________906326ae089890612a6b9084908690600401614073565b60206040518083038186803b158015612a8357600080fd5b505af4158015612a97573d6000803e3d6000fd5b505050506040513d601f19601f820116820180604052506105ac9190810190613441565b336000908152601a60205260409020546001600160a01b031690565b60015490565b8060016000828152601b6020526040902060059081015460ff1690811115612b0157fe5b14612b2157604051600160e51b62461bcd02815260040161079390613f4f565b604051600160e01b631c9a715b02815273__TaskImpl______________________________90631c9a715b906107d7906000908690600401614073565b6001600160a01b03166000908152601d602052604090205490565b6040805160a081019091526000808252602082019081526020016060815260200160008152602001606081525090565b6040805160608101909152806000815260200160008152602001600081525090565b6040518061028001604052806005905b612be3612c69565b815260200190600190039081612bdb5790505090565b6040805160a08101825260008082526020820181905291810182905260608082015290608082015290565b6040805161010081018252600080825260208201819052918101829052606081018290526080810182905260a081018290529060c08201908152602001606081525090565b6040518060800160405280600081526020016060815260200160608152602001600081525090565b80356105ac816144b7565b80516105ac816144b7565b600082601f830112612cb857600080fd5b8151612ccb612cc682614370565b61434a565b91508181835260208401935060208101905083856020840282011115612cf057600080fd5b60005b83811015612d1c5781612d068882612c9c565b8452506020928301929190910190600101612cf3565b5050505092915050565b600082601f830112612d3757600080fd5b8151612d45612cc682614370565b91508181835260208401935060208101905083856020840282011115612d6a57600080fd5b60005b83811015612d1c5781612d808882612e11565b8452506020928301929190910190600101612d6d565b600082601f830112612da757600080fd5b8151612db5612cc682614370565b91508181835260208401935060208101905083856020840282011115612dda57600080fd5b60005b83811015612d1c5781612df08882612e11565b8452506020928301929190910190600101612ddd565b80356105ac816144cb565b80516105ac816144cb565b600082601f830112612e2d57600080fd5b8135612e3b612cc682614390565b91508082526020830160208301858383011115612e5757600080fd5b612e6283828461444a565b50505092915050565b600082601f830112612e7c57600080fd5b8151612e8a612cc682614390565b91508082526020830160208301858383011115612ea657600080fd5b612e62838284614456565b80516105ac816144d4565b600060608284031215612ece57600080fd5b612ed8606061434a565b90506000612ee68484612eb1565b8252506020612ef784848301612e11565b6020830152506040612f0b84828501612e11565b60408301525092915050565b80356105ac816144e1565b600060208284031215612f3457600080fd5b6000612f408484612c91565b949350505050565b60008060408385031215612f5b57600080fd5b6000612f678585612c9c565b92505060208301516001600160401b03811115612f8357600080fd5b612f8f85828601612e6b565b9150509250929050565b600080600060608486031215612fae57600080fd5b6000612fba8686612c91565b93505060208401356001600160401b03811115612fd657600080fd5b612fe286828701612e1c565b92505060408401356001600160401b03811115612ffe57600080fd5b61300a86828701612e1c565b9150509250925092565b6000806040838503121561302757600080fd5b60006130338585612c91565b9250506020612f8f85828601612e06565b60006020828403121561305657600080fd5b81516001600160401b0381111561306c57600080fd5b612f4084828501612ca7565b6000806040838503121561308b57600080fd5b82516001600160401b038111156130a157600080fd5b6130ad85828601612ca7565b92505060208301516001600160401b038111156130c957600080fd5b612f8f85828601612d96565b6000602082840312156130e757600080fd5b81516001600160401b038111156130fd57600080fd5b612f4084828501612d26565b60006020828403121561311b57600080fd5b6000612f408484612e06565b600080600080600080600080610100898b03121561314457600080fd5b60006131508b8b612e06565b98505060206131618b828c01612e06565b97505060406131728b828c01612e06565b96505060606131838b828c01612e06565b95505060808901356001600160401b0381111561319f57600080fd5b6131ab8b828c01612e1c565b94505060a06131bc8b828c01612c91565b93505060c06131cd8b828c01612f17565b92505060e08901356001600160401b038111156131e957600080fd5b6131f58b828c01612e1c565b9150509295985092959890939650565b600080600080600060a0868803121561321d57600080fd5b60006132298888612e06565b955050602061323a88828901612e06565b945050604061324b88828901612e06565b935050606061325c88828901612f17565b92505060808601356001600160401b0381111561327857600080fd5b61328488828901612e1c565b9150509295509295909350565b600080600080608085870312156132a757600080fd5b60006132b38787612e06565b94505060206132c487828801612e06565b93505060406132d587828801612f17565b92505060608501356001600160401b038111156132f157600080fd5b6132fd87828801612e1c565b91505092959194509250565b6000806000806080858703121561331f57600080fd5b600061332b8787612e06565b945050602061333c87828801612f17565b935050604061334d87828801612f17565b92505060606132fd87828801612e06565b600080600080600060a0868803121561337657600080fd5b60006133828888612e06565b955050602061339388828901612f17565b94505060406133a488828901612f17565b93505060606133b588828901612e06565b925050608061328488828901612e06565b600080604083850312156133d957600080fd5b82356001600160401b038111156133ef57600080fd5b6133fb85828601612e1c565b92505060208301356001600160401b0381111561341757600080fd5b612f8f85828601612e1c565b60006060828403121561343557600080fd5b6000612f408484612ebc565b60006020828403121561345357600080fd5b6000612f408484612e11565b6000806040838503121561347257600080fd5b60006130338585612e06565b6000806000806080858703121561349457600080fd5b60006134a08787612e11565b94505060206134b187828801612e11565b93505060408501516001600160401b038111156134cd57600080fd5b6134d987828801612ca7565b92505060608501516001600160401b038111156134f557600080fd5b6132fd87828801612d96565b60008060006060848603121561351657600080fd5b60006135228686612e06565b9350506020612fe286828701612e06565b600061353f8383613573565b505060200190565b600061353f838361386b565b600061355f8383613ccb565b505060600190565b60006105a98383613de0565b61357c816143d3565b82525050565b600061358d826143c0565b61359781856143ca565b93506135a2836143b7565b8060005b838110156135d05781516135ba8882613533565b97506135c5836143b7565b9250506001016135a6565b509495945050505050565b60006135e6826143c0565b6135f081856143ca565b93506135fb836143b7565b8060005b838110156135d05781516136138882613533565b975061361e836143b7565b9250506001016135ff565b6000613634826143c0565b61363e81856143ca565b9350613649836143b7565b8060005b838110156135d05781516136618882613547565b975061366c836143b7565b92505060010161364d565b6000613682826143c0565b61368c81856143ca565b9350613697836143b7565b8060005b838110156135d05781516136af8882613547565b97506136ba836143b7565b92505060010161369b565b60006136d0826143c0565b6136da81856143ca565b93506136e5836143b7565b8060005b838110156135d05781516136fd8882613553565b9750613708836143b7565b9250506001016136e9565b600061371e826143c0565b61372881856143ca565b9350613733836143b7565b8060005b838110156135d057815161374b8882613553565b9750613756836143b7565b925050600101613737565b600061376c826143c4565b61377681856117b0565b935083602082028501613788856143bd565b8060005b858110156137c257848403895281516137a58582613567565b94506137b0836143b7565b60209a909a019992505060010161378c565b5091979650505050505050565b60006137da826143c0565b6137e481856143ca565b93506137ef836143b7565b8060005b838110156135d05781516138078882613547565b9750613812836143b7565b9250506001016137f3565b6000613828826143c0565b61383281856143ca565b935061383d836143b7565b8060005b838110156135d05781516138558882613547565b9750613860836143b7565b925050600101613841565b61357c816143bd565b600061387f826143c0565b61388981856143ca565b9350613899818560208601614456565b6138a281614482565b9093019392505050565b61357c8161441e565b61357c81614429565b61357c81614434565b61357c8161443f565b60006138dd6022836143ca565b7f576f726b657227732062616c616e6365206973206e6f742073756666696369658152600160f21b611b9d02602082015260400192915050565b60006139246018836143ca565b7f4e6f74206120756e69717565207369676e696e67206b65790000000000000000815260200192915050565b600061395d6027836143ca565b7f576f726b65722773206c617374206c6f67206973206e6f74206f66204c6f674f8152600160c81b667574207479706502602082015260400192915050565b60006139a9601c836143ca565b7f53656372657420636f6e7472616374206e6f74206465706c6f79656400000000815260200192915050565b60006139e26013836143ca565b7f5461736b206973206e6f742077616974696e6700000000000000000000000000815260200192915050565b6000613a1b6027836143ca565b7f5072696e636970616c206e6f646520686173206e6f74206265656e20696e69748152600160ca1b661a585b1a5e995902602082015260400192915050565b6000613a67602e836143ca565b7f43616e6e6f7420776974686472617720696e2073616d652065706f636820617381527f206c6f67206f7574206576656e74000000000000000000000000000000000000602082015260400192915050565b6000613ac66014836143ca565b7f576f726b6572206e6f74206c6f6767656420696e000000000000000000000000815260200192915050565b6000613aff6013836143ca565b7f556e7265676973746572656420776f726b657200000000000000000000000000815260200192915050565b6000613b386020836143ca565b7f53656372657420636f6e747261637420616c7265616479206465706c6f796564815260200192915050565b6000613b716027836143ca565b7f576f726b6572206e6f742072656769737465726564206f72206e6f74206c6f678152600160ca1b6619d959081bdd5d02602082015260400192915050565b805160009060a0840190613bc48582613573565b506020830151613bd7602086018261386b565b506040830151613bea604086018261386b565b5060608301518482036060860152613c028282613677565b9150506080830151613c1760808601826138ac565b509392505050565b9052565b8051600090610100840190613c388582613573565b506020830151613c4b602086018261386b565b506040830151613c5e604086018261386b565b506060830151613c716060860182613e3b565b506080830151613c846080860182613e3b565b5060a0830151613c9760a086018261386b565b5060c0830151613caa60c08601826138b5565b5060e083015184820360e0860152613cc28282613874565b95945050505050565b80516060830190613cdc84826138be565b506020820151613cef602085018261386b565b506040820151613d02604085018261386b565b50505050565b805160009060a0840190613d1c8582613573565b506020830151613d2f60208601826138c7565b5060408301518482036040860152613d478282613874565b9150506060830151613d5c606086018261386b565b5060808301518482036080860152613cc282826136c5565b805160009060a0840190613d888582613573565b506020830151613d9b60208601826138c7565b5060408301518482036040860152613db38282613874565b9150506060830151613dc8606086018261386b565b5060808301518482036080860152613cc28282613713565b80516000906080840190613df4858261386b565b5060208301518482036020860152613e0c82826135db565b91505060408301518482036040860152613e26828261381d565b9150506060830151613c17606086018261386b565b61357c81614412565b602081016105ac8284613573565b60408101613e608285613573565b8181036020830152612f408184613874565b60408101613e808285613573565b8181036020830152612f408184613d08565b602080825281016105a98184613582565b60408082528101613eb48185613582565b90508181036020830152612f4081846137cf565b602080825281016105a98184613629565b602080825281016105a98184613761565b60408082528101613efb8185613874565b90508181036020830152612f408184613874565b602080825281016105ac816138d0565b602080825281016105ac81613917565b602080825281016105ac81613950565b602080825281016105ac8161399c565b602080825281016105ac816139d5565b602080825281016105ac81613a0e565b602080825281016105ac81613a5a565b602080825281016105ac81613ab9565b602080825281016105ac81613af2565b602080825281016105ac81613b2b565b602080825281016105ac81613b64565b602080825281016105a98184613bb0565b602081016105ac8284613c1f565b60408101613fec8285613c1f565b613ff96020830184613573565b9392505050565b6080810161400e8287613c1f565b61401b6020830186613573565b818103604083015261402d8185613874565b905081810360608301526140418184613874565b9695505050505050565b606081016140598286613c1f565b6140666020830185613573565b612f40604083018461386b565b604081016140818285613c1f565b613ff9602083018461386b565b610120810161409d828c613c1f565b6140aa602083018b61386b565b6140b7604083018a61386b565b6140c4606083018961386b565b6140d1608083018861386b565b81810360a08301526140e38187613874565b90506140f260c0830186613573565b6140ff60e0830185613e3b565b8181036101008301526141128184613874565b9b9a5050505050505050505050565b60c0810161412f8289613c1f565b61413c602083018861386b565b614149604083018761386b565b614156606083018661386b565b6141636080830185613e3b565b81810360a08301526141758184613874565b98975050505050505050565b60a0810161418f8288613c1f565b61419c602083018761386b565b6141a9604083018661386b565b6141b66060830185613e3b565b81810360808301526141c88184613874565b979650505050505050565b60a081016141e18288613c1f565b6141ee602083018761386b565b6141fb6040830186613e3b565b6142086060830185613e3b565b614041608083018461386b565b60c081016142238289613c1f565b614230602083018861386b565b61423d6040830187613e3b565b61424a6060830186613e3b565b614257608083018561386b565b6141c860a083018461386b565b606081016142728286613c1f565b614066602083018561386b565b6080810161428d8287613c1f565b61429a602083018661386b565b6142a7604083018561386b565b81810360608301526140418184613874565b602080825281016105a98184613c23565b602080825281016105a98184613d08565b604080825281016142ec8185613d74565b9050613ff9602083018461386b565b602081016105ac828461386b565b60808101614317828761386b565b614324602083018661386b565b81810360408301526143368185613582565b9050818103606083015261404181846137cf565b6040518181016001600160401b038111828210171561436857600080fd5b604052919050565b60006001600160401b0382111561438657600080fd5b5060209081020190565b60006001600160401b038211156143a657600080fd5b506020601f91909101601f19160190565b60200190565b90565b5190565b50600590565b90815260200190565b60006105ac82614406565b806117b08161448c565b806117b081614499565b806117b0816144a3565b806117b0816144ad565b6001600160a01b031690565b6001600160401b031690565b60006105ac826143de565b60006105ac826143e8565b60006105ac826143f2565b60006105ac826143fc565b82818337506000910152565b60005b83811015614471578181015183820152602001614459565b83811115613d025750506000910152565b601f01601f191690565b6002811061449657fe5b50565b6006811061449657fe5b6004811061449657fe5b6003811061449657fe5b6144c0816143d3565b811461449657600080fd5b6144c0816143bd565b6004811061449657600080fd5b6144c08161441256fea265627a7a72305820c2fcc63cbd9291dd0d1966d5e347719e65a405634ca0ba85496b36b494e301f26c6578706572696d656e74616cf50037",
  "source": "pragma solidity ^0.5.0;\npragma experimental ABIEncoderV2;\n\nimport \"openzeppelin-solidity/contracts/math/SafeMath.sol\";\nimport \"openzeppelin-solidity/contracts/cryptography/ECDSA.sol\";\nimport \"./utils/SolRsaVerify.sol\";\n\nimport { WorkersImpl } from \"./impl/WorkersImpl.sol\";\nimport { PrincipalImpl } from \"./impl/PrincipalImpl.sol\";\nimport { TaskImpl } from \"./impl/TaskImpl.sol\";\nimport { SecretContractImpl } from \"./impl/SecretContractImpl.sol\";\nimport { EnigmaCommon } from \"./impl/EnigmaCommon.sol\";\nimport { EnigmaState } from \"./impl/EnigmaState.sol\";\nimport { EnigmaEvents } from \"./impl/EnigmaEvents.sol\";\nimport { EnigmaStorage } from \"./impl/EnigmaStorage.sol\";\nimport { Getters } from \"./impl/Getters.sol\";\nimport { ERC20 } from \"./interfaces/ERC20.sol\";\n\ncontract Enigma is EnigmaStorage, EnigmaEvents, Getters {\n    using SafeMath for uint256;\n    using ECDSA for bytes32;\n\n    // ========================================== Constructor ==========================================\n\n    constructor(address _tokenAddress, address _principal, uint _epochSize) public {\n        state.engToken = ERC20(_tokenAddress);\n        state.epochSize = _epochSize;\n        state.taskTimeoutSize = 200;\n        state.principal = _principal;\n        state.stakingThreshold = 1;\n        state.workerGroupSize = 1;\n    }\n\n    // ========================================== Modifiers ==========================================\n\n    /**\n    * Checks if the custodian wallet is registered as a worker\n    *\n    * @param _user The custodian address of the worker\n    */\n    modifier workerRegistered(address _user) {\n        EnigmaCommon.Worker memory worker = state.workers[_user];\n        require(worker.status != EnigmaCommon.WorkerStatus.Unregistered, \"Unregistered worker\");\n        _;\n    }\n\n    /**\n    * Checks if the custodian wallet is logged in as a worker\n    *\n    * @param _user The custodian address of the worker\n    */\n    modifier workerLoggedIn(address _user) {\n        EnigmaCommon.Worker memory worker = state.workers[_user];\n        require(worker.status == EnigmaCommon.WorkerStatus.LoggedIn, \"Worker not logged in\");\n        _;\n    }\n\n    /**\n    * Checks if the custodian wallet is logged out as a worker\n    *\n    * @param _user The custodian address of the worker\n    */\n    modifier workerLoggedOut(address _user) {\n        EnigmaCommon.Worker memory worker = state.workers[_user];\n        require(worker.status == EnigmaCommon.WorkerStatus.LoggedOut, \"Worker not logged out\");\n        _;\n    }\n\n    /**\n    * Checks if worker can log in\n    *\n    * @param _user The custodian address of the worker\n    */\n    modifier canLogIn(address _user) {\n        EnigmaCommon.Worker memory worker = state.workers[_user];\n        require(getFirstBlockNumber(block.number) != 0, \"Principal node has not been initialized\");\n        require(worker.status == EnigmaCommon.WorkerStatus.LoggedOut, \"Worker not registered or not logged out\");\n        require(worker.balance >= state.stakingThreshold, \"Worker's balance is not sufficient\");\n        _;\n    }\n\n    /**\n    * Checks if the worker can withdraw\n    *\n    * @param _user The custodian address of the worker\n    */\n    modifier canWithdraw(address _user) {\n        EnigmaCommon.Worker memory worker = state.workers[_user];\n        require(worker.status == EnigmaCommon.WorkerStatus.LoggedOut, \"Worker not registered or not logged out\");\n        EnigmaCommon.WorkerLog memory workerLog = WorkersImpl.getLatestWorkerLogImpl(worker, block.number);\n        require(workerLog.workerEventType == EnigmaCommon.WorkerLogType.LogOut,\n            \"Worker's last log is not of LogOut type\");\n        require(getFirstBlockNumber(block.number) > workerLog.blockNumber,\n            \"Cannot withdraw in same epoch as log out event\");\n        _;\n    }\n\n    /**\n    * Checks secret contract has not been deployed\n    *\n    * @param _scAddr Secret contract address\n    */\n    modifier contractUndefined(bytes32 _scAddr) {\n        require(state.contracts[_scAddr].status == EnigmaCommon.SecretContractStatus.Undefined, \"Secret contract already deployed\");\n        _;\n    }\n\n    /**\n    * Checks secret contract has been deployed\n    *\n    * @param _scAddr Secret contract address\n    */\n    modifier contractDeployed(bytes32 _scAddr) {\n        require(state.contracts[_scAddr].status == EnigmaCommon.SecretContractStatus.Deployed, \"Secret contract not deployed\");\n        _;\n    }\n\n    /**\n    * Checks task record has been created and is still pending receipt\n    *\n    * @param _taskId Task ID\n    */\n    modifier taskWaiting(bytes32 _taskId) {\n        require(state.tasks[_taskId].status == EnigmaCommon.TaskStatus.RecordCreated, \"Task is not waiting\");\n        _;\n    }\n\n    /**\n    * Ensure signing key used for registration is unique\n    *\n    * @param _signer Signing key\n    */\n    modifier isUniqueSigningKey(address _signer) {\n        for (uint i = 0; i < state.workerAddresses.length; i++) {\n            require(state.workers[state.workerAddresses[i]].signer != _signer, \"Not a unique signing key\");\n        }\n        _;\n    }\n\n    // ========================================== Functions ==========================================\n\n    /**\n    * Registers a new worker or change the signer parameters of an existing\n    * worker. This should be called by every worker (and the principal)\n    * node in order to receive tasks.\n    *\n    * @param _signer The signer address, derived from the enclave public key\n    * @param _report The RLP encoded report returned by the IAS\n    * @param _signature Signature\n    */\n    function register(address _signer, bytes memory _report, bytes memory _signature)\n    public\n    isUniqueSigningKey(_signer)\n    {\n        WorkersImpl.registerImpl(state, _signer, _report, _signature);\n    }\n//\n    /**\n    * Deposits ENG stake into contract from worker. Worker must be registered to do so.\n    *\n    * @param _custodian The worker's ETH address\n    * @param _amount The amount of ENG, in grains format (10 ** 8), to deposit\n    */\n    function deposit(address _custodian, uint _amount)\n    public\n    workerRegistered(_custodian)\n    {\n        WorkersImpl.depositImpl(state, _custodian, _amount);\n    }\n\n    /**\n    * Withdraws ENG stake from contract back to worker. Worker must be registered to do so.\n    *\n    * @param _amount The amount of ENG, in grains format (10 ** 8), to deposit\n    */\n    function withdraw(uint _amount)\n    public\n    canWithdraw(msg.sender)\n    {\n        WorkersImpl.withdrawImpl(state, _amount);\n    }\n\n    /**\n    * Login worker. Worker must be registered to do so, and must be logged in at start of epoch to be part of worker\n    * selection process.\n    */\n    function login() public canLogIn(msg.sender) {\n        WorkersImpl.loginImpl(state);\n    }\n\n    /**\n    * Logout worker. Worker must be logged in to do so.\n    */\n    function logout() public workerLoggedIn(msg.sender) {\n        WorkersImpl.logoutImpl(state);\n    }\n\n    /**\n    * Deploy secret contract from user, called by the worker.\n    *\n    * @param _taskId Task ID of corresponding deployment task (taskId == scAddr)\n    * @param _codeHash Deployed bytecode hash\n    * @param _gasUsed Gas used for task\n    * @param _sig Worker's signature for deployment\n    */\n    function deploySecretContractFailure(\n        bytes32 _taskId,\n        bytes32 _codeHash,\n        uint64 _gasUsed,\n        bytes memory _sig\n    )\n    public\n    workerLoggedIn(msg.sender)\n    contractUndefined(_taskId)\n    {\n        TaskImpl.deploySecretContractFailureImpl(state, _taskId, _codeHash, _gasUsed, _sig);\n    }\n\n    /**\n    * Deploy secret contract from user, called by the worker.\n    *\n    * @param _taskId Task ID of corresponding deployment task (taskId == scAddr)\n    * @param _preCodeHash Predeployed bytecode hash\n    * @param _codeHash Deployed bytecode hash\n    * @param _initStateDeltaHash Initial state delta hash as a result of the contract's constructor\n    * @param _optionalEthereumData Initial state delta hash as a result of the contract's constructor\n    * @param _optionalEthereumContractAddress Initial state delta hash as a result of the contract's constructor\n    * @param _gasUsed Gas used for task\n    * @param _sig Worker's signature for deployment\n    */\n    function deploySecretContract(\n        bytes32 _taskId,\n        bytes32 _preCodeHash,\n        bytes32 _codeHash,\n        bytes32 _initStateDeltaHash,\n        bytes memory _optionalEthereumData,\n        address _optionalEthereumContractAddress,\n        uint64 _gasUsed,\n        bytes memory _sig\n    )\n    public\n    workerLoggedIn(msg.sender)\n    contractUndefined(_taskId)\n    {\n        TaskImpl.deploySecretContractImpl(state, _taskId, _preCodeHash, _codeHash, _initStateDeltaHash,\n            _optionalEthereumData, _optionalEthereumContractAddress, _gasUsed, _sig);\n    }\n\n    /**\n    * Check if secret contract has been deployed\n    *\n    * @return  Number of deployed secret contracts\n    */\n    function countSecretContracts()\n    public\n    view\n    returns (uint)\n    {\n        return SecretContractImpl.countSecretContractsImpl(state);\n    }\n\n    /**\n    * Get deployed secret contract addresses within a range\n    *\n    * @param _start Start of range\n    * @param _stop End of range\n    * @return Subset of deployed secret contract addresses\n    */\n    function getSecretContractAddresses(uint _start, uint _stop)\n    public\n    view\n    returns (bytes32[] memory)\n    {\n        return SecretContractImpl.getSecretContractAddressesImpl(state, _start, _stop);\n    }\n\n    /**\n    * Create task record for contract deployment. This is necessary for transferring task fee from sender to contract,\n    * generating the unique taskId, saving the block number when the record was mined, and incrementing the user's\n    * task deployment counter nonce. We revert the process if the locally-generated nonce value does not match\n    * the on-chain-computed nonce since this indicates that the secret contract address the user has generated is\n    * invalid.\n    *\n    * @param _inputsHash Hash of encrypted fn sig, encrypted ABI-encoded args, and predeployed bytecode hash\n    * @param _gasLimit ENG gas limit\n    * @param _gasPx ENG gas price in grains format (10 ** 8)\n    * @param _firstBlockNumber Locally-computed first block number of epoch\n    * @param _nonce Locally-computed nonce value for this deployment\n    */\n    function createDeploymentTaskRecord(\n        bytes32 _inputsHash,\n        uint64 _gasLimit,\n        uint64 _gasPx,\n        uint _firstBlockNumber,\n        uint _nonce\n    )\n    public\n    {\n        TaskImpl.createDeploymentTaskRecordImpl(state, _inputsHash, _gasLimit, _gasPx, _firstBlockNumber, _nonce);\n    }\n\n    /**\n    * Create task record for task for regular tasks. This is necessary for transferring task fee from sender to\n    * contract, generating the unique taskId, saving the block number when the record was mined, and incrementing\n    * the user's task deployment counter nonce.\n    *\n    * @param _inputsHash Hash of encrypted fn sig, encrypted ABI-encoded args, and contract address\n    * @param _gasLimit ENG gas limit\n    * @param _gasPx ENG gas price in grains format (10 ** 8)\n    * @param _firstBlockNumber Locally-computed first block number of epoch\n    */\n    function createTaskRecord(\n        bytes32 _inputsHash,\n        uint64 _gasLimit,\n        uint64 _gasPx,\n        uint _firstBlockNumber\n    )\n    public\n    {\n        TaskImpl.createTaskRecordImpl(state, _inputsHash, _gasLimit, _gasPx, _firstBlockNumber);\n    }\n\n    /**\n    * Commit the computation task results on chain by first verifying the receipt and then the worker's signature.\n    * The task record is finalized and the worker is credited with the task fee.\n    *\n    * @param _scAddr Secret contract address\n    * @param _taskId Unique taskId\n    * @param _stateDeltaHash Input state delta hash\n    * @param _outputHash Output state hash\n    * @param _optionalEthereumData Output state hash\n    * @param _optionalEthereumContractAddress Output state hash\n    * @param _gasUsed Gas used for task computation\n    * @param _sig Worker's signature\n    */\n    function commitReceipt(\n        bytes32 _scAddr,\n        bytes32 _taskId,\n        bytes32 _stateDeltaHash,\n        bytes32 _outputHash,\n        bytes memory _optionalEthereumData,\n        address _optionalEthereumContractAddress,\n        uint64 _gasUsed,\n        bytes memory _sig\n    )\n    public\n    workerLoggedIn(msg.sender)\n    contractDeployed(_scAddr)\n    {\n        TaskImpl.commitReceiptImpl(state, _scAddr, _taskId, _stateDeltaHash, _outputHash, _optionalEthereumData,\n            _optionalEthereumContractAddress, _gasUsed, _sig);\n    }\n\n    /**\n    * Commit the computation task failure on chain - the task fee is transfered to the worker and the status is\n    * updated to indicate task failure.\n    *\n    * @param _scAddr Secret contract address\n    * @param _taskId Unique taskId\n    * @param _outputHash Output state hash\n    * @param _gasUsed Gas used for task computation\n    * @param _sig Worker's signature\n    */\n    function commitTaskFailure(\n        bytes32 _scAddr,\n        bytes32 _taskId,\n        bytes32 _outputHash,\n        uint64 _gasUsed,\n        bytes memory _sig\n    )\n    public\n    workerLoggedIn(msg.sender)\n    contractDeployed(_scAddr)\n    {\n        TaskImpl.commitTaskFailureImpl(state, _scAddr, _taskId, _outputHash, _gasUsed, _sig);\n    }\n\n    /**\n    * Return the task fee to the task creator when too many blocks have elapsed without task resolution.\n    *\n    * @param _taskId Unique taskId\n    */\n    function returnFeesForTask(bytes32 _taskId)\n    public\n    taskWaiting(_taskId)\n    {\n        TaskImpl.returnFeesForTaskImpl(state, _taskId);\n    }\n\n    /**\n    * Reparameterizing workers with a new seed\n    * This should be called for each epoch by the Principal node\n    *\n    * @param _blockNumber Block number principal node is attempting to set worker params\n    * @param _seed The random integer generated by the enclave\n    * @param _sig Principal node's signature\n    */\n    function setWorkersParams(uint _blockNumber, uint _seed, bytes memory _sig)\n    public\n    workerRegistered(msg.sender)\n    {\n        PrincipalImpl.setWorkersParamsImpl(state, _blockNumber, _seed, _sig);\n    }\n\n    /**\n    * Get active workers before a certain block number\n    *\n    * @param _blockNumber Block number\n    */\n    function getActiveWorkers(uint _blockNumber)\n    public\n    view\n    returns (address[] memory, uint[] memory)\n    {\n        return PrincipalImpl.getActiveWorkersImpl(state, _blockNumber);\n    }\n\n    /**\n    * Get the first block number of an epoch that a given block number belongs to\n    *\n    * @param _blockNumber Block number\n    * @return Block number\n    */\n    function getFirstBlockNumber(uint _blockNumber)\n    public\n    view\n    returns (uint) {\n        return WorkersImpl.getFirstBlockNumberImpl(state, _blockNumber);\n    }\n\n    /**\n    * Get worker params for an epoch given a particular block number\n    *\n    * @param _blockNumber Block number\n    * @return Epoch's first block number\n    * @return Seed\n    * @return Array of worker's signing addresses\n    * @return Array of worker's stakes\n    */\n    function getWorkerParams(uint _blockNumber)\n    public\n    view\n    returns (uint, uint, address[] memory, uint[] memory) {\n        return WorkersImpl.getWorkerParamsImpl(state, _blockNumber);\n    }\n\n    /**\n    * Select a group of workers for the computation task given the block number of the task record (implies the epoch)\n    * and the secret contract address.\n    *\n    * @param _blockNumber Block number the task record was mined\n    * @param _scAddr Secret contract address\n    * @return Selected workers' addresses\n    */\n    function getWorkerGroup(uint _blockNumber, bytes32 _scAddr)\n    public\n    view\n    returns (address[] memory)\n    {\n        return WorkersImpl.getWorkerGroupImpl(state, _blockNumber, _scAddr);\n    }\n\n    /**\n    * The RLP encoded report returned by the IAS server\n    *\n    * @param _custodian The worker's custodian address\n    */\n    function getReport(address _custodian)\n    public\n    view\n    workerRegistered(_custodian)\n    returns (address, bytes memory)\n    {\n        return WorkersImpl.getReportImpl(state, _custodian);\n    }\n\n    /**\n    * This verifies an IAS report with hard coded modulus and exponent of Intel's certificate.\n    * @param _data The report itself\n    * @param _signature The signature of the report\n    */\n    function verifyReport(bytes memory _data, bytes memory _signature)\n    public\n    view\n    returns (uint)\n    {\n        return WorkersImpl.verifyReportImpl(_data, _signature);\n    }\n}\n",
  "sourcePath": "/root/enigma-contract/contracts/Enigma.sol",
  "compiler": {
    "name": "solc",
    "version": "0.5.8+commit.23d335f2.Emscripten.clang"
  },
  "schemaVersion": "3.0.16",
  "updatedAt": "2019-10-17T17:58:07.896Z",
  "devdoc": {
    "methods": {
      "commitReceipt(bytes32,bytes32,bytes32,bytes32,bytes,address,uint64,bytes)": {
        "params": {
          "_gasUsed": "Gas used for task computation",
          "_optionalEthereumContractAddress": "Output state hash",
          "_optionalEthereumData": "Output state hash",
          "_outputHash": "Output state hash",
          "_scAddr": "Secret contract address",
          "_sig": "Worker's signature",
          "_stateDeltaHash": "Input state delta hash",
          "_taskId": "Unique taskId"
        }
      },
      "commitTaskFailure(bytes32,bytes32,bytes32,uint64,bytes)": {
        "params": {
          "_gasUsed": "Gas used for task computation",
          "_outputHash": "Output state hash",
          "_scAddr": "Secret contract address",
          "_sig": "Worker's signature",
          "_taskId": "Unique taskId"
        }
      },
      "countSecretContracts()": {
        "return": "Number of deployed secret contracts"
      },
      "createDeploymentTaskRecord(bytes32,uint64,uint64,uint256,uint256)": {
        "params": {
          "_firstBlockNumber": "Locally-computed first block number of epoch",
          "_gasLimit": "ENG gas limit",
          "_gasPx": "ENG gas price in grains format (10 ** 8)",
          "_inputsHash": "Hash of encrypted fn sig, encrypted ABI-encoded args, and predeployed bytecode hash",
          "_nonce": "Locally-computed nonce value for this deployment"
        }
      },
      "createTaskRecord(bytes32,uint64,uint64,uint256)": {
        "params": {
          "_firstBlockNumber": "Locally-computed first block number of epoch",
          "_gasLimit": "ENG gas limit",
          "_gasPx": "ENG gas price in grains format (10 ** 8)",
          "_inputsHash": "Hash of encrypted fn sig, encrypted ABI-encoded args, and contract address"
        }
      },
      "deploySecretContract(bytes32,bytes32,bytes32,bytes32,bytes,address,uint64,bytes)": {
        "params": {
          "_codeHash": "Deployed bytecode hash",
          "_gasUsed": "Gas used for task",
          "_initStateDeltaHash": "Initial state delta hash as a result of the contract's constructor",
          "_optionalEthereumContractAddress": "Initial state delta hash as a result of the contract's constructor",
          "_optionalEthereumData": "Initial state delta hash as a result of the contract's constructor",
          "_preCodeHash": "Predeployed bytecode hash",
          "_sig": "Worker's signature for deployment",
          "_taskId": "Task ID of corresponding deployment task (taskId == scAddr)"
        }
      },
      "deploySecretContractFailure(bytes32,bytes32,uint64,bytes)": {
        "params": {
          "_codeHash": "Deployed bytecode hash",
          "_gasUsed": "Gas used for task",
          "_sig": "Worker's signature for deployment",
          "_taskId": "Task ID of corresponding deployment task (taskId == scAddr)"
        }
      },
      "deposit(address,uint256)": {
        "params": {
          "_amount": "The amount of ENG, in grains format (10 ** 8), to deposit",
          "_custodian": "The worker's ETH address"
        }
      },
      "getActiveWorkers(uint256)": {
        "params": {
          "_blockNumber": "Block number"
        }
      },
      "getAllSecretContractAddresses()": {
        "return": "Array of secret contract addresses"
      },
      "getEpochSize()": {
        "return": "Epoch size"
      },
      "getFirstBlockNumber(uint256)": {
        "params": {
          "_blockNumber": "Block number"
        },
        "return": "Block number"
      },
      "getReport(address)": {
        "params": {
          "_custodian": "The worker's custodian address"
        }
      },
      "getSecretContract(bytes32)": {
        "params": {
          "_scAddr": "Secret contract address"
        },
        "return": "SecretContract struct"
      },
      "getSecretContractAddresses(uint256,uint256)": {
        "params": {
          "_start": "Start of range",
          "_stop": "End of range"
        },
        "return": "Subset of deployed secret contract addresses"
      },
      "getSigningAddress()": {
        "return": "Signing address"
      },
      "getTaskRecord(bytes32)": {
        "params": {
          "_taskId": "Unique identifier for a given task"
        },
        "return": "TaskRecord struct"
      },
      "getUserTaskDeployments(address)": {
        "params": {
          "_sender": "Task sender's ethereum address"
        },
        "return": "Current number for task deployments for user"
      },
      "getWorker(address)": {
        "params": {
          "_worker": "Worker's ethereum address"
        },
        "return": "Worker struct"
      },
      "getWorkerFromSigningAddress(address)": {
        "params": {
          "_signer": "Worker's signing address"
        },
        "return": "Ethereum addressWorker struct"
      },
      "getWorkerGroup(uint256,bytes32)": {
        "params": {
          "_blockNumber": "Block number the task record was mined",
          "_scAddr": "Secret contract address"
        },
        "return": "Selected workers' addresses"
      },
      "getWorkerParams(uint256)": {
        "params": {
          "_blockNumber": "Block number"
        },
        "return": "Epoch's first block numberSeedArray of worker's signing addressesArray of worker's stakes"
      },
      "getWorkersParams()": {
        "return": "Array of WorkersParams structs"
      },
      "register(address,bytes,bytes)": {
        "params": {
          "_report": "The RLP encoded report returned by the IAS",
          "_signature": "Signature",
          "_signer": "The signer address, derived from the enclave public key"
        }
      },
      "returnFeesForTask(bytes32)": {
        "params": {
          "_taskId": "Unique taskId"
        }
      },
      "setWorkersParams(uint256,uint256,bytes)": {
        "params": {
          "_blockNumber": "Block number principal node is attempting to set worker params",
          "_seed": "The random integer generated by the enclave",
          "_sig": "Principal node's signature"
        }
      },
      "verifyReport(bytes,bytes)": {
        "params": {
          "_data": "The report itself",
          "_signature": "The signature of the report"
        }
      },
      "withdraw(uint256)": {
        "params": {
          "_amount": "The amount of ENG, in grains format (10 ** 8), to deposit"
        }
      }
    }
  },
  "userdoc": {
    "methods": {
      "commitReceipt(bytes32,bytes32,bytes32,bytes32,bytes,address,uint64,bytes)": {
        "notice": "Commit the computation task results on chain by first verifying the receipt and then the worker's signature. The task record is finalized and the worker is credited with the task fee."
      },
      "commitTaskFailure(bytes32,bytes32,bytes32,uint64,bytes)": {
        "notice": "Commit the computation task failure on chain - the task fee is transfered to the worker and the status is updated to indicate task failure."
      },
      "countSecretContracts()": {
        "notice": "Check if secret contract has been deployed"
      },
      "createDeploymentTaskRecord(bytes32,uint64,uint64,uint256,uint256)": {
        "notice": "Create task record for contract deployment. This is necessary for transferring task fee from sender to contract, generating the unique taskId, saving the block number when the record was mined, and incrementing the user's task deployment counter nonce. We revert the process if the locally-generated nonce value does not match the on-chain-computed nonce since this indicates that the secret contract address the user has generated is invalid."
      },
      "createTaskRecord(bytes32,uint64,uint64,uint256)": {
        "notice": "Create task record for task for regular tasks. This is necessary for transferring task fee from sender to contract, generating the unique taskId, saving the block number when the record was mined, and incrementing the user's task deployment counter nonce."
      },
      "deploySecretContract(bytes32,bytes32,bytes32,bytes32,bytes,address,uint64,bytes)": {
        "notice": "Deploy secret contract from user, called by the worker."
      },
      "deploySecretContractFailure(bytes32,bytes32,uint64,bytes)": {
        "notice": "Deploy secret contract from user, called by the worker."
      },
      "deposit(address,uint256)": {
        "notice": "Deposits ENG stake into contract from worker. Worker must be registered to do so."
      },
      "getActiveWorkers(uint256)": {
        "notice": "Get active workers before a certain block number"
      },
      "getAllSecretContractAddresses()": {
        "notice": "Get all secret contract addresses"
      },
      "getEpochSize()": {
        "notice": "Get the epoch block size"
      },
      "getFirstBlockNumber(uint256)": {
        "notice": "Get the first block number of an epoch that a given block number belongs to"
      },
      "getReport(address)": {
        "notice": "The RLP encoded report returned by the IAS server"
      },
      "getSecretContract(bytes32)": {
        "notice": "Get a SecretContract struct given a particular secret contract address"
      },
      "getSecretContractAddresses(uint256,uint256)": {
        "notice": "Get deployed secret contract addresses within a range"
      },
      "getSigningAddress()": {
        "notice": "Get signing address of calling worker"
      },
      "getTaskRecord(bytes32)": {
        "notice": "Get a TaskRecord struct given a particular task's ID"
      },
      "getUserTaskDeployments(address)": {
        "notice": "Get the current number/index (used as unique nonce value) of task deployments for a given user user"
      },
      "getWorker(address)": {
        "notice": "Get Worker struct from a given worker's ethereum address"
      },
      "getWorkerFromSigningAddress(address)": {
        "notice": "Get Worker struct from a given worker's signing address"
      },
      "getWorkerGroup(uint256,bytes32)": {
        "notice": "Select a group of workers for the computation task given the block number of the task record (implies the epoch) and the secret contract address."
      },
      "getWorkerParams(uint256)": {
        "notice": "Get worker params for an epoch given a particular block number"
      },
      "getWorkersParams()": {
        "notice": "Get epoch-based history of worker params information"
      },
      "login()": {
        "notice": "Login worker. Worker must be registered to do so, and must be logged in at start of epoch to be part of worker selection process."
      },
      "logout()": {
        "notice": "Logout worker. Worker must be logged in to do so."
      },
      "register(address,bytes,bytes)": {
        "notice": "Registers a new worker or change the signer parameters of an existing worker. This should be called by every worker (and the principal) node in order to receive tasks."
      },
      "returnFeesForTask(bytes32)": {
        "notice": "Return the task fee to the task creator when too many blocks have elapsed without task resolution."
      },
      "setWorkersParams(uint256,uint256,bytes)": {
        "notice": "Reparameterizing workers with a new seed This should be called for each epoch by the Principal node"
      },
      "verifyReport(bytes,bytes)": {
        "notice": "This verifies an IAS report with hard coded modulus and exponent of Intel's certificate."
      },
      "withdraw(uint256)": {
        "notice": "Withdraws ENG stake from contract back to worker. Worker must be registered to do so."
      }
    }
  }
}